{
  "contractName": "braggerContract",
  "abi": [
    {
      "constant": true,
      "inputs": [
        {
          "name": "",
          "type": "address"
        }
      ],
      "name": "balanceOf",
      "outputs": [
        {
          "name": "",
          "type": "uint256"
        }
      ],
      "payable": false,
      "stateMutability": "view",
      "type": "function"
    },
    {
      "constant": true,
      "inputs": [],
      "name": "ownerAddress",
      "outputs": [
        {
          "name": "",
          "type": "address"
        }
      ],
      "payable": false,
      "stateMutability": "view",
      "type": "function"
    },
    {
      "constant": true,
      "inputs": [
        {
          "name": "",
          "type": "address"
        },
        {
          "name": "",
          "type": "address"
        }
      ],
      "name": "allowance",
      "outputs": [
        {
          "name": "",
          "type": "uint256"
        }
      ],
      "payable": false,
      "stateMutability": "view",
      "type": "function"
    },
    {
      "inputs": [],
      "payable": false,
      "stateMutability": "nonpayable",
      "type": "constructor"
    },
    {
      "anonymous": false,
      "inputs": [
        {
          "indexed": true,
          "name": "from",
          "type": "address"
        },
        {
          "indexed": true,
          "name": "to",
          "type": "address"
        },
        {
          "indexed": false,
          "name": "value",
          "type": "uint256"
        }
      ],
      "name": "Transfer",
      "type": "event"
    },
    {
      "anonymous": false,
      "inputs": [
        {
          "indexed": true,
          "name": "from",
          "type": "address"
        },
        {
          "indexed": false,
          "name": "value",
          "type": "uint256"
        }
      ],
      "name": "Burn",
      "type": "event"
    },
    {
      "constant": false,
      "inputs": [],
      "name": "requestPayout",
      "outputs": [],
      "payable": false,
      "stateMutability": "nonpayable",
      "type": "function"
    },
    {
      "constant": false,
      "inputs": [],
      "name": "delayPayout",
      "outputs": [],
      "payable": true,
      "stateMutability": "payable",
      "type": "function"
    },
    {
      "constant": false,
      "inputs": [],
      "name": "triggerPayout",
      "outputs": [],
      "payable": false,
      "stateMutability": "nonpayable",
      "type": "function"
    },
    {
      "constant": true,
      "inputs": [],
      "name": "getPayoutRequestedState",
      "outputs": [
        {
          "name": "",
          "type": "bool"
        }
      ],
      "payable": false,
      "stateMutability": "view",
      "type": "function"
    },
    {
      "constant": true,
      "inputs": [],
      "name": "getPayoutReadyState",
      "outputs": [
        {
          "name": "",
          "type": "bool"
        }
      ],
      "payable": false,
      "stateMutability": "view",
      "type": "function"
    },
    {
      "constant": true,
      "inputs": [],
      "name": "getCurrentPayoutBlock",
      "outputs": [
        {
          "name": "",
          "type": "uint256"
        }
      ],
      "payable": false,
      "stateMutability": "view",
      "type": "function"
    },
    {
      "constant": true,
      "inputs": [],
      "name": "getRemainingBlocksUntilPayoutk",
      "outputs": [
        {
          "name": "",
          "type": "uint256"
        }
      ],
      "payable": false,
      "stateMutability": "view",
      "type": "function"
    },
    {
      "constant": true,
      "inputs": [],
      "name": "getTotalBraggedVolume",
      "outputs": [
        {
          "name": "_amount",
          "type": "uint256"
        }
      ],
      "payable": false,
      "stateMutability": "view",
      "type": "function"
    },
    {
      "constant": true,
      "inputs": [],
      "name": "getCurrentBragKing",
      "outputs": [
        {
          "name": "_bragger",
          "type": "address"
        },
        {
          "name": "_amount",
          "type": "uint256"
        },
        {
          "name": "_quote",
          "type": "string"
        },
        {
          "name": "_username",
          "type": "string"
        },
        {
          "name": "_picture",
          "type": "string"
        }
      ],
      "payable": false,
      "stateMutability": "view",
      "type": "function"
    },
    {
      "constant": true,
      "inputs": [],
      "name": "arrayLength",
      "outputs": [
        {
          "name": "arraylength",
          "type": "uint256"
        }
      ],
      "payable": false,
      "stateMutability": "view",
      "type": "function"
    },
    {
      "constant": true,
      "inputs": [
        {
          "name": "_index",
          "type": "uint256"
        }
      ],
      "name": "getBraggerAtIndex",
      "outputs": [
        {
          "name": "_bragger",
          "type": "address"
        },
        {
          "name": "_brag",
          "type": "uint256"
        },
        {
          "name": "_username",
          "type": "string"
        },
        {
          "name": "_picture",
          "type": "string"
        }
      ],
      "payable": false,
      "stateMutability": "view",
      "type": "function"
    },
    {
      "constant": true,
      "inputs": [
        {
          "name": "_wallet",
          "type": "address"
        }
      ],
      "name": "getUserNameByWallet",
      "outputs": [
        {
          "name": "_username",
          "type": "string"
        }
      ],
      "payable": false,
      "stateMutability": "view",
      "type": "function"
    },
    {
      "constant": true,
      "inputs": [
        {
          "name": "_wallet",
          "type": "address"
        }
      ],
      "name": "getUserPictureByWallet",
      "outputs": [
        {
          "name": "_url",
          "type": "string"
        }
      ],
      "payable": false,
      "stateMutability": "view",
      "type": "function"
    },
    {
      "constant": true,
      "inputs": [
        {
          "name": "_username",
          "type": "string"
        }
      ],
      "name": "getUserWalletByUsername",
      "outputs": [
        {
          "name": "_address",
          "type": "address"
        }
      ],
      "payable": false,
      "stateMutability": "view",
      "type": "function"
    },
    {
      "constant": true,
      "inputs": [
        {
          "name": "_username",
          "type": "string"
        }
      ],
      "name": "getUserPictureByUsername",
      "outputs": [
        {
          "name": "_url",
          "type": "string"
        }
      ],
      "payable": false,
      "stateMutability": "view",
      "type": "function"
    },
    {
      "constant": true,
      "inputs": [
        {
          "name": "_user",
          "type": "address"
        }
      ],
      "name": "getFineLevelOfAddress",
      "outputs": [
        {
          "name": "_fineLevel",
          "type": "uint256"
        },
        {
          "name": "_fineAmount",
          "type": "uint256"
        }
      ],
      "payable": false,
      "stateMutability": "view",
      "type": "function"
    },
    {
      "constant": true,
      "inputs": [
        {
          "name": "_username",
          "type": "string"
        }
      ],
      "name": "getFineLevelOfUsername",
      "outputs": [
        {
          "name": "_fineLevel",
          "type": "uint256"
        },
        {
          "name": "_fineAmount",
          "type": "uint256"
        }
      ],
      "payable": false,
      "stateMutability": "view",
      "type": "function"
    },
    {
      "constant": true,
      "inputs": [],
      "name": "getTotalBrags",
      "outputs": [
        {
          "name": "",
          "type": "uint256"
        }
      ],
      "payable": false,
      "stateMutability": "view",
      "type": "function"
    },
    {
      "constant": true,
      "inputs": [],
      "name": "getWinnerPot",
      "outputs": [
        {
          "name": "",
          "type": "uint256"
        }
      ],
      "payable": false,
      "stateMutability": "view",
      "type": "function"
    },
    {
      "constant": false,
      "inputs": [],
      "name": "brag",
      "outputs": [],
      "payable": true,
      "stateMutability": "payable",
      "type": "function"
    },
    {
      "constant": false,
      "inputs": [
        {
          "name": "_message",
          "type": "string"
        }
      ],
      "name": "setTheKingsQuote",
      "outputs": [],
      "payable": true,
      "stateMutability": "payable",
      "type": "function"
    },
    {
      "constant": false,
      "inputs": [
        {
          "name": "_username",
          "type": "string"
        },
        {
          "name": "_pictureUrl",
          "type": "string"
        }
      ],
      "name": "createNewUser",
      "outputs": [],
      "payable": false,
      "stateMutability": "nonpayable",
      "type": "function"
    },
    {
      "constant": false,
      "inputs": [],
      "name": "resetQuote",
      "outputs": [],
      "payable": false,
      "stateMutability": "nonpayable",
      "type": "function"
    },
    {
      "constant": false,
      "inputs": [
        {
          "name": "_username",
          "type": "string"
        }
      ],
      "name": "resetUsername",
      "outputs": [],
      "payable": false,
      "stateMutability": "nonpayable",
      "type": "function"
    },
    {
      "constant": false,
      "inputs": [
        {
          "name": "_username",
          "type": "string"
        }
      ],
      "name": "resetUserPicture",
      "outputs": [],
      "payable": false,
      "stateMutability": "nonpayable",
      "type": "function"
    },
    {
      "constant": false,
      "inputs": [
        {
          "name": "_to",
          "type": "address"
        },
        {
          "name": "_value",
          "type": "uint256"
        }
      ],
      "name": "transfer",
      "outputs": [],
      "payable": false,
      "stateMutability": "nonpayable",
      "type": "function"
    },
    {
      "constant": false,
      "inputs": [
        {
          "name": "_from",
          "type": "address"
        },
        {
          "name": "_to",
          "type": "address"
        },
        {
          "name": "_value",
          "type": "uint256"
        }
      ],
      "name": "transferFrom",
      "outputs": [
        {
          "name": "success",
          "type": "bool"
        }
      ],
      "payable": false,
      "stateMutability": "nonpayable",
      "type": "function"
    },
    {
      "constant": false,
      "inputs": [
        {
          "name": "_spender",
          "type": "address"
        },
        {
          "name": "_value",
          "type": "uint256"
        }
      ],
      "name": "approve",
      "outputs": [
        {
          "name": "success",
          "type": "bool"
        }
      ],
      "payable": false,
      "stateMutability": "nonpayable",
      "type": "function"
    },
    {
      "constant": false,
      "inputs": [
        {
          "name": "_spender",
          "type": "address"
        },
        {
          "name": "_value",
          "type": "uint256"
        },
        {
          "name": "_extraData",
          "type": "bytes"
        }
      ],
      "name": "approveAndCall",
      "outputs": [
        {
          "name": "success",
          "type": "bool"
        }
      ],
      "payable": false,
      "stateMutability": "nonpayable",
      "type": "function"
    },
    {
      "constant": false,
      "inputs": [],
      "name": "reset",
      "outputs": [],
      "payable": false,
      "stateMutability": "nonpayable",
      "type": "function"
    }
  ],
  "bytecode": "0x60806040527304fd8fcff717754de3ba18dac22a5fda7d69658e600d60006101000a81548173ffffffffffffffffffffffffffffffffffffffff021916908373ffffffffffffffffffffffffffffffffffffffff160217905550606060405190810160405280602381526020017f546561636820796f75722070656f706c65207769746820796f7572207769736481526020017f6f6d2e0000000000000000000000000000000000000000000000000000000000815250600e9080519060200190620000cd92919062000209565b50608060405190810160405280604881526020017f68747470733a2f2f63646e322e69636f6e66696e6465722e636f6d2f6461746181526020017f2f69636f6e732f696f732d372d69636f6e732f35302f757365725f6d616c653281526020017f2d3531322e706e67000000000000000000000000000000000000000000000000815250600f90805190602001906200016892919062000209565b506658d15e17628000601055600060115560006012553480156200018b57600080fd5b506000601360016101000a81548160ff0219169083151502179055506000601360006101000a81548160ff02191690831515021790555033600c60006101000a81548173ffffffffffffffffffffffffffffffffffffffff021916908373ffffffffffffffffffffffffffffffffffffffff160217905550620002b8565b828054600181600116156101000203166002900490600052602060002090601f016020900481019282601f106200024c57805160ff19168380011785556200027d565b828001600101855582156200027d579182015b828111156200027c5782518255916020019190600101906200025f565b5b5090506200028c919062000290565b5090565b620002b591905b80821115620002b157600081600090555060010162000297565b5090565b90565b6133cf80620002c86000396000f3006080604052600436106101a0576000357c0100000000000000000000000000000000000000000000000000000000900463ffffffff16806210ed99146101a557806305a95f04146102f1578063095ea7b31461030857806323b872dd1461036d5780632de3ad02146103f2578063306781c11461049b5780634dfa3f18146104c657806365058f4c1461057557806366ec60c71461058c57806369ddaad11461061057806370a08231146106275780637a55d4bd1461067e5780638925d7bb146108205780638f84aa091461084b57806395a3bf6e146108a25780639bef0c47146108d1578063a0b43a4e1461098d578063a9059cbb146109b8578063ac58853614610a05578063ae014f1d14610a0f578063b2a9ab9c14610acb578063b8bf0f1f14610af6578063b9d5d7fe14610b21578063ba77015414610b8a578063c394690914610c6c578063cae9ca5114610cc8578063cb0cedb814610d73578063d826f88f14610dd1578063dd62ed3e14610de8578063e554482e14610e5f578063ec64f52f14610e8a578063efd0c85114610e94578063f90f327814610ec3575b600080fd5b3480156101b157600080fd5b506101d060048036038101908080359060200190929190505050610f2c565b604051808573ffffffffffffffffffffffffffffffffffffffff1673ffffffffffffffffffffffffffffffffffffffff1681526020018481526020018060200180602001838103835285818151815260200191508051906020019080838360005b8381101561024c578082015181840152602081019050610231565b50505050905090810190601f1680156102795780820380516001836020036101000a031916815260200191505b50838103825284818151815260200191508051906020019080838360005b838110156102b2578082015181840152602081019050610297565b50505050905090810190601f1680156102df5780820380516001836020036101000a031916815260200191505b50965050505050505060405180910390f35b3480156102fd57600080fd5b50610306611208565b005b34801561031457600080fd5b50610353600480360381019080803573ffffffffffffffffffffffffffffffffffffffff169060200190929190803590602001909291905050506112d5565b604051808215151515815260200191505060405180910390f35b34801561037957600080fd5b506103d8600480360381019080803573ffffffffffffffffffffffffffffffffffffffff169060200190929190803573ffffffffffffffffffffffffffffffffffffffff16906020019092919080359060200190929190505050611362565b604051808215151515815260200191505060405180910390f35b3480156103fe57600080fd5b50610459600480360381019080803590602001908201803590602001908080601f016020809104026020016040519081016040528093929190818152602001838380828437820191505050505050919291929050505061148f565b604051808273ffffffffffffffffffffffffffffffffffffffff1673ffffffffffffffffffffffffffffffffffffffff16815260200191505060405180910390f35b3480156104a757600080fd5b506104b0611529565b6040518082815260200191505060405180910390f35b3480156104d257600080fd5b50610573600480360381019080803590602001908201803590602001908080601f0160208091040260200160405190810160405280939291908181526020018383808284378201915050505050509192919290803590602001908201803590602001908080601f0160208091040260200160405190810160405280939291908181526020018383808284378201915050505050509192919290505050611533565b005b34801561058157600080fd5b5061058a611857565b005b34801561059857600080fd5b506105f3600480360381019080803590602001908201803590602001908080601f0160208091040260200160405190810160405280939291908181526020018383808284378201915050505050509192919290505050611895565b604051808381526020018281526020019250505060405180910390f35b34801561061c57600080fd5b5061062561197d565b005b34801561063357600080fd5b50610668600480360381019080803573ffffffffffffffffffffffffffffffffffffffff169060200190929190505050611b85565b6040518082815260200191505060405180910390f35b34801561068a57600080fd5b50610693611b9d565b604051808673ffffffffffffffffffffffffffffffffffffffff1673ffffffffffffffffffffffffffffffffffffffff168152602001858152602001806020018060200180602001848103845287818151815260200191508051906020019080838360005b838110156107135780820151818401526020810190506106f8565b50505050905090810190601f1680156107405780820380516001836020036101000a031916815260200191505b50848103835286818151815260200191508051906020019080838360005b8381101561077957808201518184015260208101905061075e565b50505050905090810190601f1680156107a65780820380516001836020036101000a031916815260200191505b50848103825285818151815260200191508051906020019080838360005b838110156107df5780820151818401526020810190506107c4565b50505050905090810190601f16801561080c5780820380516001836020036101000a031916815260200191505b509850505050505050505060405180910390f35b34801561082c57600080fd5b50610835611f60565b6040518082815260200191505060405180910390f35b34801561085757600080fd5b50610860611f6a565b604051808273ffffffffffffffffffffffffffffffffffffffff1673ffffffffffffffffffffffffffffffffffffffff16815260200191505060405180910390f35b3480156108ae57600080fd5b506108b7611f90565b604051808215151515815260200191505060405180910390f35b3480156108dd57600080fd5b50610912600480360381019080803573ffffffffffffffffffffffffffffffffffffffff169060200190929190505050611fa7565b6040518080602001828103825283818151815260200191508051906020019080838360005b83811015610952578082015181840152602081019050610937565b50505050905090810190601f16801561097f5780820380516001836020036101000a031916815260200191505b509250505060405180910390f35b34801561099957600080fd5b506109a26120e3565b6040518082815260200191505060405180910390f35b3480156109c457600080fd5b50610a03600480360381019080803573ffffffffffffffffffffffffffffffffffffffff16906020019092919080359060200190929190505050612102565b005b610a0d612111565b005b348015610a1b57600080fd5b50610a50600480360381019080803573ffffffffffffffffffffffffffffffffffffffff1690602001909291905050506121b8565b6040518080602001828103825283818151815260200191508051906020019080838360005b83811015610a90578082015181840152602081019050610a75565b50505050905090810190601f168015610abd5780820380516001836020036101000a031916815260200191505b509250505060405180910390f35b348015610ad757600080fd5b50610ae06122f4565b6040518082815260200191505060405180910390f35b348015610b0257600080fd5b50610b0b6122fe565b6040518082815260200191505060405180910390f35b348015610b2d57600080fd5b50610b88600480360381019080803590602001908201803590602001908080601f0160208091040260200160405190810160405280939291908181526020018383808284378201915050505050509192919290505050612311565b005b348015610b9657600080fd5b50610bf1600480360381019080803590602001908201803590602001908080601f01602080910402602001604051908101604052809392919081815260200183838082843782019150505050505091929192905050506124e8565b6040518080602001828103825283818151815260200191508051906020019080838360005b83811015610c31578082015181840152602081019050610c16565b50505050905090810190601f168015610c5e5780820380516001836020036101000a031916815260200191505b509250505060405180910390f35b610cc6600480360381019080803590602001908201803590602001908080601f01602080910402602001604051908101604052809392919081815260200183838082843782019150505050505091929192905050506125f8565b005b348015610cd457600080fd5b50610d59600480360381019080803573ffffffffffffffffffffffffffffffffffffffff16906020019092919080359060200190929190803590602001908201803590602001908080601f01602080910402602001604051908101604052809392919081815260200183838082843782019150505050505091929192905050506127ad565b604051808215151515815260200191505060405180910390f35b348015610d7f57600080fd5b50610db4600480360381019080803573ffffffffffffffffffffffffffffffffffffffff169060200190929190505050612930565b604051808381526020018281526020019250505060405180910390f35b348015610ddd57600080fd5b50610de6612987565b005b348015610df457600080fd5b50610e49600480360381019080803573ffffffffffffffffffffffffffffffffffffffff169060200190929190803573ffffffffffffffffffffffffffffffffffffffff169060200190929190505050612a1e565b6040518082815260200191505060405180910390f35b348015610e6b57600080fd5b50610e74612a43565b6040518082815260200191505060405180910390f35b610e92612a50565b005b348015610ea057600080fd5b50610ea9612ca2565b604051808215151515815260200191505060405180910390f35b348015610ecf57600080fd5b50610f2a600480360381019080803590602001908201803590602001908080601f0160208091040260200160405190810160405280939291908181526020018383808284378201915050505050509192919290505050612cde565b005b600080606080601585815481101515610f4157fe5b9060005260206000200160009054906101000a900473ffffffffffffffffffffffffffffffffffffffff169350600960008573ffffffffffffffffffffffffffffffffffffffff1673ffffffffffffffffffffffffffffffffffffffff168152602001908152602001600020549250600260008573ffffffffffffffffffffffffffffffffffffffff1673ffffffffffffffffffffffffffffffffffffffff16815260200190815260200160002060009054906101000a900460ff16156110125761100b846121b8565b9150611026565b602060405190810160405280600081525091505b600360008573ffffffffffffffffffffffffffffffffffffffff1673ffffffffffffffffffffffffffffffffffffffff16815260200190815260200160002060009054906101000a900460ff161561115757600760008573ffffffffffffffffffffffffffffffffffffffff1673ffffffffffffffffffffffffffffffffffffffff1681526020019081526020016000208054600181600116156101000203166002900480601f01602080910402602001604051908101604052809291908181526020018280546001816001161561010002031660029004801561114b5780601f106111205761010080835404028352916020019161114b565b820191906000526020600020905b81548152906001019060200180831161112e57829003601f168201915b505050505090506111f5565b600f8054600181600116156101000203166002900480601f0160208091040260200160405190810160405280929190818152602001828054600181600116156101000203166002900480156111ed5780601f106111c2576101008083540402835291602001916111ed565b820191906000526020600020905b8154815290600101906020018083116111d057829003601f168201915b505050505090505b8383838393509350935093509193509193565b6000611212611f90565b151561121d57600080fd5b601560016015805490500381548110151561123457fe5b9060005260206000200160009054906101000a900473ffffffffffffffffffffffffffffffffffffffff1690508073ffffffffffffffffffffffffffffffffffffffff166108fc6112836120e3565b9081150290604051600060405180830381858888f193505050501580156112ae573d6000803e3d6000fd5b5060006014819055506000601360016101000a81548160ff02191690831515021790555050565b600081600160003373ffffffffffffffffffffffffffffffffffffffff1673ffffffffffffffffffffffffffffffffffffffff16815260200190815260200160002060008573ffffffffffffffffffffffffffffffffffffffff1673ffffffffffffffffffffffffffffffffffffffff168152602001908152602001600020819055506001905092915050565b6000600160008573ffffffffffffffffffffffffffffffffffffffff1673ffffffffffffffffffffffffffffffffffffffff16815260200190815260200160002060003373ffffffffffffffffffffffffffffffffffffffff1673ffffffffffffffffffffffffffffffffffffffff1681526020019081526020016000205482111515156113ef57600080fd5b81600160008673ffffffffffffffffffffffffffffffffffffffff1673ffffffffffffffffffffffffffffffffffffffff16815260200190815260200160002060003373ffffffffffffffffffffffffffffffffffffffff1673ffffffffffffffffffffffffffffffffffffffff16815260200190815260200160002060008282540392505081905550611484848484612edd565b600190509392505050565b6000806005836040518082805190602001908083835b6020831015156114ca57805182526020820191506020810190506020830392506114a5565b6001836020036101000a038019825116818451168082178552505050505050905001915050908152602001604051809103902060009054906101000a900473ffffffffffffffffffffffffffffffffffffffff16905080915050919050565b6000601454905090565b600260003373ffffffffffffffffffffffffffffffffffffffff1673ffffffffffffffffffffffffffffffffffffffff16815260200190815260200160002060009054906101000a900460ff1615151561158c57600080fd5b81600460003373ffffffffffffffffffffffffffffffffffffffff1673ffffffffffffffffffffffffffffffffffffffff16815260200190815260200160002090805190602001906115df929190613277565b50336005836040518082805190602001908083835b60208310151561161957805182526020820191506020810190506020830392506115f4565b6001836020036101000a038019825116818451168082178552505050505050905001915050908152602001604051809103902060006101000a81548173ffffffffffffffffffffffffffffffffffffffff021916908373ffffffffffffffffffffffffffffffffffffffff160217905550806006836040518082805190602001908083835b6020831015156116c3578051825260208201915060208101905060208303925061169e565b6001836020036101000a03801982511681845116808217855250505050505090500191505090815260200160405180910390209080519060200190611709929190613277565b5080600760003373ffffffffffffffffffffffffffffffffffffffff1673ffffffffffffffffffffffffffffffffffffffff168152602001908152602001600020908051906020019061175d929190613277565b506000600860003373ffffffffffffffffffffffffffffffffffffffff1673ffffffffffffffffffffffffffffffffffffffff168152602001908152602001600020819055506001600260003373ffffffffffffffffffffffffffffffffffffffff1673ffffffffffffffffffffffffffffffffffffffff16815260200190815260200160002060006101000a81548160ff0219169083151502179055506001600360003373ffffffffffffffffffffffffffffffffffffffff1673ffffffffffffffffffffffffffffffffffffffff16815260200190815260200160002060006101000a81548160ff0219169083151502179055505050565b61185f611f90565b1515611893576001601360016101000a81548160ff02191690831515021790555061188c436143806131ea565b6014819055505b565b60008060006005846040518082805190602001908083835b6020831015156118d257805182526020820191506020810190506020830392506118ad565b6001836020036101000a038019825116818451168082178552505050505050905001915050908152602001604051809103902060009054906101000a900473ffffffffffffffffffffffffffffffffffffffff169050600860008273ffffffffffffffffffffffffffffffffffffffff1673ffffffffffffffffffffffffffffffffffffffff1681526020019081526020016000205492506010548302915082829250925050915091565b600c60009054906101000a900473ffffffffffffffffffffffffffffffffffffffff1673ffffffffffffffffffffffffffffffffffffffff163373ffffffffffffffffffffffffffffffffffffffff161415156119d957600080fd5b600e600a600060156001601580549050038154811015156119f657fe5b9060005260206000200160009054906101000a900473ffffffffffffffffffffffffffffffffffffffff1673ffffffffffffffffffffffffffffffffffffffff1673ffffffffffffffffffffffffffffffffffffffff1681526020019081526020016000209080546001816001161561010002031660029004611a7a9291906132f7565b506001600860006015600160158054905003815481101515611a9857fe5b9060005260206000200160009054906101000a900473ffffffffffffffffffffffffffffffffffffffff1673ffffffffffffffffffffffffffffffffffffffff1673ffffffffffffffffffffffffffffffffffffffff1681526020019081526020016000205401600860006015600160158054905003815481101515611b1a57fe5b9060005260206000200160009054906101000a900473ffffffffffffffffffffffffffffffffffffffff1673ffffffffffffffffffffffffffffffffffffffff1673ffffffffffffffffffffffffffffffffffffffff16815260200190815260200160002081905550565b60006020528060005260406000206000915090505481565b60008060608060606015600160158054905003815481101515611bbc57fe5b9060005260206000200160009054906101000a900473ffffffffffffffffffffffffffffffffffffffff169450600960008673ffffffffffffffffffffffffffffffffffffffff1673ffffffffffffffffffffffffffffffffffffffff168152602001908152602001600020549350600a60008673ffffffffffffffffffffffffffffffffffffffff1673ffffffffffffffffffffffffffffffffffffffff1681526020019081526020016000208054600181600116156101000203166002900480601f016020809104026020016040519081016040528092919081815260200182805460018160011615610100020316600290048015611cfe5780601f10611cd357610100808354040283529160200191611cfe565b820191906000526020600020905b815481529060010190602001808311611ce157829003601f168201915b50505050509250600260008673ffffffffffffffffffffffffffffffffffffffff1673ffffffffffffffffffffffffffffffffffffffff16815260200190815260200160002060009054906101000a900460ff1615611d6757611d60856121b8565b9150611d7b565b602060405190810160405280600081525091505b600360008673ffffffffffffffffffffffffffffffffffffffff1673ffffffffffffffffffffffffffffffffffffffff16815260200190815260200160002060009054906101000a900460ff1615611eac57600760008673ffffffffffffffffffffffffffffffffffffffff1673ffffffffffffffffffffffffffffffffffffffff1681526020019081526020016000208054600181600116156101000203166002900480601f016020809104026020016040519081016040528092919081815260200182805460018160011615610100020316600290048015611ea05780601f10611e7557610100808354040283529160200191611ea0565b820191906000526020600020905b815481529060010190602001808311611e8357829003601f168201915b50505050509050611f4a565b600f8054600181600116156101000203166002900480601f016020809104026020016040519081016040528092919081815260200182805460018160011615610100020316600290048015611f425780601f10611f1757610100808354040283529160200191611f42565b820191906000526020600020905b815481529060010190602001808311611f2557829003601f168201915b505050505090505b8484848484945094509450945094509091929394565b6000601254905090565b600c60009054906101000a900473ffffffffffffffffffffffffffffffffffffffff1681565b6000601360019054906101000a900460ff16905090565b6060600260008373ffffffffffffffffffffffffffffffffffffffff1673ffffffffffffffffffffffffffffffffffffffff16815260200190815260200160002060009054906101000a900460ff16151561200157600080fd5b600760008373ffffffffffffffffffffffffffffffffffffffff1673ffffffffffffffffffffffffffffffffffffffff1681526020019081526020016000208054600181600116156101000203166002900480601f0160208091040260200160405190810160405280929190818152602001828054600181600116156101000203166002900480156120d45780601f106120a9576101008083540402835291602001916120d4565b820191906000526020600020905b8154815290600101906020018083116120b757829003601f168201915b50505050509050809050919050565b60003073ffffffffffffffffffffffffffffffffffffffff1631905090565b61210d338383612edd565b5050565b612119611f90565b151561212457600080fd5b6608e1bc9bf04000341015151561213a57600080fd5b61214760145460f06131ea565b601481905550600d60009054906101000a900473ffffffffffffffffffffffffffffffffffffffff1673ffffffffffffffffffffffffffffffffffffffff166108fc349081150290604051600060405180830381858888f193505050501580156121b5573d6000803e3d6000fd5b50565b6060600260008373ffffffffffffffffffffffffffffffffffffffff1673ffffffffffffffffffffffffffffffffffffffff16815260200190815260200160002060009054906101000a900460ff16151561221257600080fd5b600460008373ffffffffffffffffffffffffffffffffffffffff1673ffffffffffffffffffffffffffffffffffffffff1681526020019081526020016000208054600181600116156101000203166002900480601f0160208091040260200160405190810160405280929190818152602001828054600181600116156101000203166002900480156122e55780601f106122ba576101008083540402835291602001916122e5565b820191906000526020600020905b8154815290600101906020018083116122c857829003601f168201915b50505050509050809050919050565b6000601154905090565b600061230c60145443613208565b905090565b6000600c60009054906101000a900473ffffffffffffffffffffffffffffffffffffffff1673ffffffffffffffffffffffffffffffffffffffff163373ffffffffffffffffffffffffffffffffffffffff1614151561236f57600080fd5b6005826040518082805190602001908083835b6020831015156123a75780518252602082019150602081019050602083039250612382565b6001836020036101000a038019825116818451168082178552505050505050905001915050908152602001604051809103902060009054906101000a900473ffffffffffffffffffffffffffffffffffffffff169050600f600760008373ffffffffffffffffffffffffffffffffffffffff1673ffffffffffffffffffffffffffffffffffffffff168152602001908152602001600020908054600181600116156101000203166002900461245d9291906132f7565b506001600860008373ffffffffffffffffffffffffffffffffffffffff1673ffffffffffffffffffffffffffffffffffffffff1681526020019081526020016000205401600860008373ffffffffffffffffffffffffffffffffffffffff1673ffffffffffffffffffffffffffffffffffffffff168152602001908152602001600020819055505050565b60606006826040518082805190602001908083835b60208310151561252257805182526020820191506020810190506020830392506124fd565b6001836020036101000a03801982511681845116808217855250505050505090500191505090815260200160405180910390208054600181600116156101000203166002900480601f0160208091040260200160405190810160405280929190818152602001828054600181600116156101000203166002900480156125e95780601f106125be576101008083540402835291602001916125e9565b820191906000526020600020905b8154815290600101906020018083116125cc57829003601f168201915b50505050509050809050919050565b6000600860003373ffffffffffffffffffffffffffffffffffffffff1673ffffffffffffffffffffffffffffffffffffffff16815260200190815260200160002054111561269a5761268b601054600860003373ffffffffffffffffffffffffffffffffffffffff1673ffffffffffffffffffffffffffffffffffffffff16815260200190815260200160002054613221565b341015151561269957600080fd5b5b60156001601580549050038154811015156126b157fe5b9060005260206000200160009054906101000a900473ffffffffffffffffffffffffffffffffffffffff1673ffffffffffffffffffffffffffffffffffffffff163373ffffffffffffffffffffffffffffffffffffffff1614151561271557600080fd5b80600a6000601560016015805490500381548110151561273157fe5b9060005260206000200160009054906101000a900473ffffffffffffffffffffffffffffffffffffffff1673ffffffffffffffffffffffffffffffffffffffff1673ffffffffffffffffffffffffffffffffffffffff16815260200190815260200160002090805190602001906127a9929190613277565b5050565b6000808490506127bd85856112d5565b15612927578073ffffffffffffffffffffffffffffffffffffffff16638f4ffcb1338630876040518563ffffffff167c0100000000000000000000000000000000000000000000000000000000028152600401808573ffffffffffffffffffffffffffffffffffffffff1673ffffffffffffffffffffffffffffffffffffffff1681526020018481526020018373ffffffffffffffffffffffffffffffffffffffff1673ffffffffffffffffffffffffffffffffffffffff16815260200180602001828103825283818151815260200191508051906020019080838360005b838110156128b757808201518184015260208101905061289c565b50505050905090810190601f1680156128e45780820380516001836020036101000a031916815260200191505b5095505050505050600060405180830381600087803b15801561290657600080fd5b505af115801561291a573d6000803e3d6000fd5b5050505060019150612928565b5b509392505050565b600080600860008473ffffffffffffffffffffffffffffffffffffffff1673ffffffffffffffffffffffffffffffffffffffff16815260200190815260200160002054915060105482029050818191509150915091565b600c60009054906101000a900473ffffffffffffffffffffffffffffffffffffffff1673ffffffffffffffffffffffffffffffffffffffff163373ffffffffffffffffffffffffffffffffffffffff161415156129e357600080fd5b600c60009054906101000a900473ffffffffffffffffffffffffffffffffffffffff1673ffffffffffffffffffffffffffffffffffffffff16ff5b6001602052816000526040600020602052806000526040600020600091509150505481565b6000601580549050905090565b34600960003373ffffffffffffffffffffffffffffffffffffffff1673ffffffffffffffffffffffffffffffffffffffff16815260200190815260200160002081905550600e600a60003373ffffffffffffffffffffffffffffffffffffffff1673ffffffffffffffffffffffffffffffffffffffff1681526020019081526020016000209080546001816001161561010002031660029004612af49291906132f7565b50600b60003373ffffffffffffffffffffffffffffffffffffffff1673ffffffffffffffffffffffffffffffffffffffff16815260200190815260200160002060009054906101000a900460ff161515612baf5760153390806001815401808255809150509060018203906000526020600020016000909192909190916101000a81548173ffffffffffffffffffffffffffffffffffffffff021916908373ffffffffffffffffffffffffffffffffffffffff160217905550505b3460115401601181905550600d60009054906101000a900473ffffffffffffffffffffffffffffffffffffffff1673ffffffffffffffffffffffffffffffffffffffff166108fc612c0b601e612c0634606461325c565b613221565b9081150290604051600060405180830381858888f19350505050158015612c36573d6000803e3d6000fd5b5060016012600082825401925050819055506001600b60003373ffffffffffffffffffffffffffffffffffffffff1673ffffffffffffffffffffffffffffffffffffffff16815260200190815260200160002060006101000a81548160ff021916908315150217905550565b60006014544310158015612cb95750600060145414155b15612cc75760019050612cdb565b601454431015612cda5760009050612cdb565b5b90565b6000600c60009054906101000a900473ffffffffffffffffffffffffffffffffffffffff1673ffffffffffffffffffffffffffffffffffffffff163373ffffffffffffffffffffffffffffffffffffffff16141515612d3c57600080fd5b6005826040518082805190602001908083835b602083101515612d745780518252602082019150602081019050602083039250612d4f565b6001836020036101000a038019825116818451168082178552505050505050905001915050908152602001604051809103902060009054906101000a900473ffffffffffffffffffffffffffffffffffffffff1690506040805190810160405280600481526020017f4d69636b00000000000000000000000000000000000000000000000000000000815250600460008373ffffffffffffffffffffffffffffffffffffffff1673ffffffffffffffffffffffffffffffffffffffff1681526020019081526020016000209080519060200190612e52929190613277565b506001600860008373ffffffffffffffffffffffffffffffffffffffff1673ffffffffffffffffffffffffffffffffffffffff1681526020019081526020016000205401600860008373ffffffffffffffffffffffffffffffffffffffff1673ffffffffffffffffffffffffffffffffffffffff168152602001908152602001600020819055505050565b6000808373ffffffffffffffffffffffffffffffffffffffff1614151515612f0457600080fd5b816000808673ffffffffffffffffffffffffffffffffffffffff1673ffffffffffffffffffffffffffffffffffffffff1681526020019081526020016000205410151515612f5157600080fd5b6000808473ffffffffffffffffffffffffffffffffffffffff1673ffffffffffffffffffffffffffffffffffffffff16815260200190815260200160002054826000808673ffffffffffffffffffffffffffffffffffffffff1673ffffffffffffffffffffffffffffffffffffffff1681526020019081526020016000205401111515612fdd57600080fd5b6000808473ffffffffffffffffffffffffffffffffffffffff1673ffffffffffffffffffffffffffffffffffffffff168152602001908152602001600020546000808673ffffffffffffffffffffffffffffffffffffffff1673ffffffffffffffffffffffffffffffffffffffff16815260200190815260200160002054019050816000808673ffffffffffffffffffffffffffffffffffffffff1673ffffffffffffffffffffffffffffffffffffffff16815260200190815260200160002060008282540392505081905550816000808573ffffffffffffffffffffffffffffffffffffffff1673ffffffffffffffffffffffffffffffffffffffff168152602001908152602001600020600082825401925050819055508273ffffffffffffffffffffffffffffffffffffffff168473ffffffffffffffffffffffffffffffffffffffff167fddf252ad1be2c89b69c2b068fc378daa952ba7f163c4a11628f55a4df523b3ef846040518082815260200191505060405180910390a3806000808573ffffffffffffffffffffffffffffffffffffffff1673ffffffffffffffffffffffffffffffffffffffff168152602001908152602001600020546000808773ffffffffffffffffffffffffffffffffffffffff1673ffffffffffffffffffffffffffffffffffffffff16815260200190815260200160002054011415156131e457fe5b50505050565b60008082840190508381101515156131fe57fe5b8091505092915050565b600082821115151561321657fe5b818303905092915050565b60008060008414156132365760009150613255565b828402905082848281151561324757fe5b0414151561325157fe5b8091505b5092915050565b600080828481151561326a57fe5b0490508091505092915050565b828054600181600116156101000203166002900490600052602060002090601f016020900481019282601f106132b857805160ff19168380011785556132e6565b828001600101855582156132e6579182015b828111156132e55782518255916020019190600101906132ca565b5b5090506132f3919061337e565b5090565b828054600181600116156101000203166002900490600052602060002090601f016020900481019282601f10613330578054855561336d565b8280016001018555821561336d57600052602060002091601f016020900482015b8281111561336c578254825591600101919060010190613351565b5b50905061337a919061337e565b5090565b6133a091905b8082111561339c576000816000905550600101613384565b5090565b905600a165627a7a72305820979177390bfa4f365b6a7f885ad4f86dfb27a7119178031dcd7dba0c3c5b457a0029",
  "source": "pragma solidity ^0.4.24;\r\n\r\ninterface tokenRecipient {\r\n    function receiveApproval(address _from, uint256 _value, address _token, bytes _extraData) external;\r\n}\r\n\r\ncontract braggerContract {\r\n\r\n/*********************************/\r\n/*********** MAPPINGS ************/\r\n/*********************************/\r\n\r\n    // This creates an array with all balances\r\n    mapping (address => uint256) public balanceOf;\r\n    mapping (address => mapping (address => uint256)) public allowance;\r\n\r\n    mapping (address => bool) private isUser;\r\n    mapping (address => bool) private hasPicture;\r\n    mapping (address => string) private userWalletToUserName;\r\n    mapping (string => address) private userNameToUserWallet;\r\n    mapping (string => string) private userNameToPicture;\r\n    mapping (address => string) private userWalletToPicture;\r\n    mapping (address => uint256) private fineLevel;\r\n\r\n    /****** Bragger Mappings ******/\r\n    mapping (address => uint256) private braggedAmount;\r\n    mapping (address => string) private braggerQuote;\r\n\r\n    mapping (address => bool) private alreadyBragged;\r\n\r\n/*********************************/\r\n/************* EVENTS ************/\r\n/*********************************/\r\n\r\n    // This generates a public event on the blockchain that will notify clients\r\n    event Transfer(address indexed from, address indexed to, uint256 value);\r\n\r\n    // This notifies clients about the amount burnt\r\n    event Burn(address indexed from, uint256 value);\r\n\r\n/*********************************/\r\n/******** FREE VARIABLES *********/\r\n/*********************************/\r\n\r\n    address public ownerAddress;\r\n    address private bragAddress = 0x04fd8fcff717754dE3BA18dAC22A5Fda7D69658E;\r\n\r\n    string private initialQuote = \"Teach your people with your wisdom.\";\r\n    /******SET PICTURE*/\r\n    string private initialPicture = \"https://cdn2.iconfinder.com/data/icons/ios-7-icons/50/user_male2-512.png\";\r\n\r\n    uint256 basicFine = 25000000000000000;\r\n\r\n    uint256 totalBraggedValue = 0;\r\n\r\n    uint256 totalbrags = 0;\r\n\r\n    bool payoutReady;\r\n    bool payoutRequested;\r\n    uint256 payoutBlock;\r\n\r\n/*********************************/\r\n/*********** DATA TYPES **********/\r\n/*********************************/\r\n\r\n    address [] private braggers;\r\n\r\n/*********************************/\r\n/*********** MODIFIER ************/\r\n/*********************************/\r\n\r\n    /// @dev Access modifier for CEO-only functionality\r\n    modifier onlyCreator() {\r\n        require(msg.sender == ownerAddress);\r\n        _;\r\n    }\r\n\r\n\r\n/*********************************/\r\n/********** CONSTRUCTOR **********/\r\n/*********************************/\r\n\r\n    constructor() public {\r\n        payoutRequested = false;\r\n        payoutReady = false;\r\n        ownerAddress = msg.sender;\r\n    }\r\n\r\n/*********************************/\r\n/******* PAYOUT FUNCTIONS ********/\r\n/*********************************/\r\n\r\n    function requestPayout() public {\r\n        //require(isUser[msg.sender]);\r\n        if(!getPayoutRequestedState()) {\r\n            payoutRequested = true;\r\n            payoutBlock = SafeMath.add(block.number, 17280);\r\n        }\r\n    }\r\n\r\n    function delayPayout() public payable {\r\n        require(getPayoutRequestedState());\r\n        //require(isUser[msg.sender]);\r\n        require(msg.value>=2500000000000000);\r\n        payoutBlock = SafeMath.add(payoutBlock, 240);\r\n        bragAddress.transfer(msg.value);\r\n    }\r\n\r\n    function triggerPayout() public {\r\n        //require(isUser[msg.sender]);\r\n        require(getPayoutRequestedState());\r\n        address _winner = braggers[braggers.length-1];\r\n        _winner.transfer(getWinnerPot());\r\n        payoutBlock = 0;\r\n        payoutRequested = false;\r\n    }\r\n\r\n/*********************************/\r\n/************ GETTERS ************/\r\n/*********************************/\r\n\r\n    function getPayoutRequestedState() public view returns(bool){\r\n        return payoutRequested;\r\n    }\r\n\r\n    function getPayoutReadyState() public view returns(bool){\r\n         if(block.number>=payoutBlock && payoutBlock != 0){\r\n            return true;\r\n        }\r\n\r\n        if(block.number < payoutBlock){\r\n            return false;\r\n        }\r\n    }\r\n\r\n    function getCurrentPayoutBlock() public view returns(uint){\r\n        return payoutBlock;\r\n    }\r\n\r\n    function getRemainingBlocksUntilPayoutk() public view returns(uint){\r\n        return SafeMath.sub(payoutBlock, block.number);\r\n    }\r\n\r\n    function getTotalBraggedVolume() public view returns (uint256 _amount){\r\n        return totalBraggedValue;\r\n    }\r\n\r\n    function getCurrentBragKing() public view returns(address _bragger, uint256 _amount, string _quote, string _username, string _picture){\r\n        _bragger = braggers[braggers.length-1];\r\n        _amount = braggedAmount[_bragger];\r\n        _quote = braggerQuote[_bragger];\r\n        if(isUser[_bragger]){\r\n            _username = getUserNameByWallet(_bragger);\r\n        } else {\r\n            _username = \"\";\r\n        }\r\n\r\n        if(hasPicture[_bragger]){\r\n            _picture = userWalletToPicture[_bragger];\r\n        } else {\r\n            _picture = initialPicture;\r\n        }\r\n\r\n        return (_bragger, _amount, _quote, _username, _picture);\r\n    }\r\n\r\n    function arrayLength()public view returns(uint256 arraylength){\r\n        return braggers.length;\r\n    }\r\n\r\n    function getBraggerAtIndex(uint256 _index) public view returns(address _bragger, uint256 _brag, string _username, string _picture){\r\n        _bragger = braggers[_index];\r\n        _brag = braggedAmount[_bragger];\r\n\r\n        if(isUser[_bragger]){\r\n            _username = getUserNameByWallet(_bragger);\r\n        } else {\r\n            _username = \"\";\r\n        }\r\n\r\n         if(hasPicture[_bragger]){\r\n            _picture = userWalletToPicture[_bragger];\r\n        } else {\r\n            _picture = initialPicture;\r\n        }\r\n\r\n        return (_bragger, _brag, _username, _picture);\r\n    }\r\n\r\n    function getUserNameByWallet(address _wallet) public view returns (string _username){\r\n        require(isUser[_wallet]);\r\n        _username = userWalletToUserName[_wallet];\r\n        return _username;\r\n    }\r\n\r\n     function getUserPictureByWallet(address _wallet) public view returns (string _url){\r\n        require(isUser[_wallet]);\r\n        _url = userWalletToPicture[_wallet];\r\n        return _url;\r\n    }\r\n\r\n    function getUserWalletByUsername(string _username) public view returns(address _address){\r\n        address _user = userNameToUserWallet[_username];\r\n        return (_user);\r\n    }\r\n\r\n    function getUserPictureByUsername(string _username) public view returns(string _url){\r\n        _url = userNameToPicture[_username];\r\n        return (_url);\r\n    }\r\n\r\n    function getFineLevelOfAddress(address _user) public view returns(uint256 _fineLevel, uint256 _fineAmount){\r\n        _fineLevel = fineLevel[_user];\r\n        _fineAmount = _fineLevel * basicFine;\r\n        return (_fineLevel, _fineAmount);\r\n    }\r\n\r\n    function getFineLevelOfUsername(string _username) public view returns(uint256 _fineLevel, uint256 _fineAmount){\r\n        address _user = userNameToUserWallet[_username];\r\n        _fineLevel = fineLevel[_user];\r\n        _fineAmount = _fineLevel * basicFine;\r\n        return (_fineLevel, _fineAmount);\r\n    }\r\n\r\n    function getTotalBrags() public view returns(uint256){\r\n        return totalbrags;\r\n    }\r\n\r\n    function getWinnerPot() public view returns(uint256){\r\n       return address(this).balance;\r\n    }\r\n\r\n/*********************************/\r\n/****** BRAGING FUNCTIONS ********/\r\n/*********************************/\r\n\r\n\r\n    function brag() public payable{\r\n\r\n        braggedAmount[msg.sender] = msg.value;\r\n        braggerQuote[msg.sender] = initialQuote;\r\n\r\n        if (!alreadyBragged[msg.sender]){\r\n            braggers.push(msg.sender);\r\n        }\r\n\r\n        totalBraggedValue = totalBraggedValue + msg.value;\r\n\r\n        bragAddress.transfer(SafeMath.mul(30,SafeMath.div(msg.value, 100)));\r\n\r\n        totalbrags += 1;\r\n        alreadyBragged[msg.sender] = true;\r\n\r\n    }\r\n\r\n/*********************************/\r\n/******* USER INTERACTION ********/\r\n/*********************************/\r\n\r\n    function setTheKingsQuote(string _message) public payable{\r\n        if(fineLevel[msg.sender] > 0){\r\n            require(msg.value >= (SafeMath.mul(basicFine, fineLevel[msg.sender])));\r\n        }\r\n        require(msg.sender == braggers[braggers.length-1]);\r\n        braggerQuote[braggers[braggers.length-1]] = _message;\r\n    }\r\n\r\n/*********************************/\r\n/********* USER CREATION *********/\r\n/*********************************/\r\n\r\n    function createNewUser(string _username, string _pictureUrl) public {\r\n\r\n        require(!isUser[msg.sender]);\r\n\r\n        userWalletToUserName[msg.sender] = _username;\r\n        userNameToUserWallet[_username] = msg.sender;\r\n        userNameToPicture[_username] = _pictureUrl;\r\n        userWalletToPicture[msg.sender] = _pictureUrl;\r\n        fineLevel[msg.sender] = 0;\r\n\r\n        isUser[msg.sender] = true;\r\n        hasPicture[msg.sender] = true;\r\n    }\r\n\r\n/*********************************/\r\n/******** OWNER FUNCTIONS ********/\r\n/*********************************/\r\n\r\n    function resetQuote()public onlyCreator{\r\n        braggerQuote[braggers[braggers.length-1]] = initialQuote;\r\n        fineLevel[braggers[braggers.length-1]] = fineLevel[braggers[braggers.length-1]] + 1;\r\n    }\r\n\r\n    function resetUsername(string _username)public onlyCreator{\r\n        address user = userNameToUserWallet[_username];\r\n        userWalletToUserName[user] = \"Mick\";\r\n        fineLevel[user] = fineLevel[user] + 1;\r\n    }\r\n\r\n    function resetUserPicture(string _username)public onlyCreator{\r\n        address user = userNameToUserWallet[_username];\r\n        userWalletToPicture[user] = initialPicture;\r\n        fineLevel[user] = fineLevel[user] + 1;\r\n    }\r\n\r\n/*********************************/\r\n/******** LEGACY FUNCIONS ********/\r\n/*********************************/\r\n\r\n    function _transfer(address _from, address _to, uint _value) internal {\r\n        // Prevent transfer to 0x0 address. Use burn() instead\r\n        require(_to != 0x0);\r\n        // Check if the sender has enough\r\n        require(balanceOf[_from] >= _value);\r\n        // Check for overflows\r\n        require(balanceOf[_to] + _value > balanceOf[_to]);\r\n        // Save this for an assertion in the future\r\n        uint previousBalances = balanceOf[_from] + balanceOf[_to];\r\n        // Subtract from the sender\r\n        balanceOf[_from] -= _value;\r\n        // Add the same to the recipient\r\n        balanceOf[_to] += _value;\r\n        emit Transfer(_from, _to, _value);\r\n        // Asserts are used to use static analysis to find bugs in your code. They should never fail\r\n        assert(balanceOf[_from] + balanceOf[_to] == previousBalances);\r\n    }\r\n\r\n    function transfer(address _to, uint256 _value) public {\r\n        _transfer(msg.sender, _to, _value);\r\n    }\r\n\r\n    function transferFrom(address _from, address _to, uint256 _value) public returns (bool success) {\r\n        require(_value <= allowance[_from][msg.sender]);     // Check allowance\r\n        allowance[_from][msg.sender] -= _value;\r\n        _transfer(_from, _to, _value);\r\n        return true;\r\n    }\r\n\r\n    function approve(address _spender, uint256 _value) public\r\n        returns (bool success) {\r\n        allowance[msg.sender][_spender] = _value;\r\n        return true;\r\n    }\r\n\r\n    function approveAndCall(address _spender, uint256 _value, bytes _extraData)\r\n        public\r\n        returns (bool success) {\r\n        tokenRecipient spender = tokenRecipient(_spender);\r\n        if (approve(_spender, _value)) {\r\n            spender.receiveApproval(msg.sender, _value, this, _extraData);\r\n            return true;\r\n        }\r\n    }\r\n\r\n    function reset()public onlyCreator {\r\n        selfdestruct(ownerAddress);\r\n    }\r\n\r\n}\r\n\r\n/*********************************/\r\n/*********** CALC LIB ************/\r\n/*********************************/\r\n\r\nlibrary SafeMath {\r\n\r\n  function mul(uint256 a, uint256 b) internal pure returns (uint256) {\r\n    if (a == 0) {\r\n      return 0;\r\n    }\r\n    uint256 c = a * b;\r\n    assert(c / a == b);\r\n    return c;\r\n  }\r\n\r\n  function div(uint256 a, uint256 b) internal pure returns (uint256) {\r\n    // assert(b > 0); // Solidity automatically throws when dividing by 0\r\n    uint256 c = a / b;\r\n    // assert(a == b * c + a % b); // There is no case in which this doesn't hold\r\n    return c;\r\n  }\r\n\r\n  function sub(uint256 a, uint256 b) internal pure returns (uint256) {\r\n    assert(b <= a);\r\n    return a - b;\r\n  }\r\n\r\n  function add(uint256 a, uint256 b) internal pure returns (uint256) {\r\n    uint256 c = a + b;\r\n    assert(c >= a);\r\n    return c;\r\n  }\r\n}\r\n",
  "sourcePath": "/Users/Shoxc/Documents/repos/bragger/Bragger_Webproject/contracts/braggerContract.sol",
  "compiler": {
    "name": "solc",
    "version": "0.4.24+commit.e67f0147.Emscripten.clang"
  },
  "schemaVersion": "2.0.1",
  "updatedAt": "2018-08-28T13:34:46.758Z"
}