{
  "contractName": "braggerContract",
  "abi": [
    {
      "constant": true,
      "inputs": [
        {
          "name": "",
          "type": "address"
        }
      ],
      "name": "balanceOf",
      "outputs": [
        {
          "name": "",
          "type": "uint256"
        }
      ],
      "payable": false,
      "stateMutability": "view",
      "type": "function"
    },
    {
      "constant": true,
      "inputs": [],
      "name": "ownerAddress",
      "outputs": [
        {
          "name": "",
          "type": "address"
        }
      ],
      "payable": false,
      "stateMutability": "view",
      "type": "function"
    },
    {
      "constant": true,
      "inputs": [
        {
          "name": "",
          "type": "address"
        },
        {
          "name": "",
          "type": "address"
        }
      ],
      "name": "allowance",
      "outputs": [
        {
          "name": "",
          "type": "uint256"
        }
      ],
      "payable": false,
      "stateMutability": "view",
      "type": "function"
    },
    {
      "inputs": [],
      "payable": false,
      "stateMutability": "nonpayable",
      "type": "constructor"
    },
    {
      "anonymous": false,
      "inputs": [
        {
          "indexed": true,
          "name": "from",
          "type": "address"
        },
        {
          "indexed": true,
          "name": "to",
          "type": "address"
        },
        {
          "indexed": false,
          "name": "value",
          "type": "uint256"
        }
      ],
      "name": "Transfer",
      "type": "event"
    },
    {
      "anonymous": false,
      "inputs": [
        {
          "indexed": true,
          "name": "from",
          "type": "address"
        },
        {
          "indexed": false,
          "name": "value",
          "type": "uint256"
        }
      ],
      "name": "Burn",
      "type": "event"
    },
    {
      "constant": false,
      "inputs": [],
      "name": "requestPayout",
      "outputs": [],
      "payable": false,
      "stateMutability": "nonpayable",
      "type": "function"
    },
    {
      "constant": false,
      "inputs": [],
      "name": "delayPayout",
      "outputs": [],
      "payable": true,
      "stateMutability": "payable",
      "type": "function"
    },
    {
      "constant": false,
      "inputs": [],
      "name": "triggerPayout",
      "outputs": [],
      "payable": false,
      "stateMutability": "nonpayable",
      "type": "function"
    },
    {
      "constant": false,
      "inputs": [],
      "name": "checkPayoutReadyState",
      "outputs": [
        {
          "name": "",
          "type": "bool"
        }
      ],
      "payable": false,
      "stateMutability": "nonpayable",
      "type": "function"
    },
    {
      "constant": true,
      "inputs": [],
      "name": "getPayoutRequestedState",
      "outputs": [
        {
          "name": "",
          "type": "bool"
        }
      ],
      "payable": false,
      "stateMutability": "view",
      "type": "function"
    },
    {
      "constant": true,
      "inputs": [],
      "name": "getPayoutReadyState",
      "outputs": [
        {
          "name": "",
          "type": "bool"
        }
      ],
      "payable": false,
      "stateMutability": "view",
      "type": "function"
    },
    {
      "constant": true,
      "inputs": [],
      "name": "getCurrentPayoutBlock",
      "outputs": [
        {
          "name": "",
          "type": "uint256"
        }
      ],
      "payable": false,
      "stateMutability": "view",
      "type": "function"
    },
    {
      "constant": true,
      "inputs": [],
      "name": "getRemainingBlocksUntilPayoutk",
      "outputs": [
        {
          "name": "",
          "type": "uint256"
        }
      ],
      "payable": false,
      "stateMutability": "view",
      "type": "function"
    },
    {
      "constant": true,
      "inputs": [],
      "name": "getTotalBraggedVolume",
      "outputs": [
        {
          "name": "_amount",
          "type": "uint256"
        }
      ],
      "payable": false,
      "stateMutability": "view",
      "type": "function"
    },
    {
      "constant": true,
      "inputs": [],
      "name": "getCurrentBragKing",
      "outputs": [
        {
          "name": "_bragger",
          "type": "address"
        },
        {
          "name": "_amount",
          "type": "uint256"
        },
        {
          "name": "_quote",
          "type": "string"
        },
        {
          "name": "_username",
          "type": "string"
        },
        {
          "name": "_picture",
          "type": "string"
        }
      ],
      "payable": false,
      "stateMutability": "view",
      "type": "function"
    },
    {
      "constant": true,
      "inputs": [],
      "name": "arrayLength",
      "outputs": [
        {
          "name": "length",
          "type": "uint256"
        }
      ],
      "payable": false,
      "stateMutability": "view",
      "type": "function"
    },
    {
      "constant": true,
      "inputs": [
        {
          "name": "_index",
          "type": "uint256"
        }
      ],
      "name": "getBraggerAtIndex",
      "outputs": [
        {
          "name": "_bragger",
          "type": "address"
        },
        {
          "name": "_brag",
          "type": "uint256"
        },
        {
          "name": "_username",
          "type": "string"
        },
        {
          "name": "_picture",
          "type": "string"
        }
      ],
      "payable": false,
      "stateMutability": "view",
      "type": "function"
    },
    {
      "constant": true,
      "inputs": [
        {
          "name": "_wallet",
          "type": "address"
        }
      ],
      "name": "getUserNameByWallet",
      "outputs": [
        {
          "name": "_username",
          "type": "string"
        }
      ],
      "payable": false,
      "stateMutability": "view",
      "type": "function"
    },
    {
      "constant": true,
      "inputs": [
        {
          "name": "_wallet",
          "type": "address"
        }
      ],
      "name": "getUserPictureByWallet",
      "outputs": [
        {
          "name": "_url",
          "type": "string"
        }
      ],
      "payable": false,
      "stateMutability": "view",
      "type": "function"
    },
    {
      "constant": true,
      "inputs": [
        {
          "name": "_username",
          "type": "string"
        }
      ],
      "name": "getUserWalletByUsername",
      "outputs": [
        {
          "name": "_address",
          "type": "address"
        }
      ],
      "payable": false,
      "stateMutability": "view",
      "type": "function"
    },
    {
      "constant": true,
      "inputs": [
        {
          "name": "_username",
          "type": "string"
        }
      ],
      "name": "getUserPictureByUsername",
      "outputs": [
        {
          "name": "_url",
          "type": "string"
        }
      ],
      "payable": false,
      "stateMutability": "view",
      "type": "function"
    },
    {
      "constant": true,
      "inputs": [
        {
          "name": "_user",
          "type": "address"
        }
      ],
      "name": "getFineLevelOfAddress",
      "outputs": [
        {
          "name": "_fineLevel",
          "type": "uint256"
        },
        {
          "name": "_fineAmount",
          "type": "uint256"
        }
      ],
      "payable": false,
      "stateMutability": "view",
      "type": "function"
    },
    {
      "constant": true,
      "inputs": [
        {
          "name": "_username",
          "type": "string"
        }
      ],
      "name": "getFineLevelOfUsername",
      "outputs": [
        {
          "name": "_fineLevel",
          "type": "uint256"
        },
        {
          "name": "_fineAmount",
          "type": "uint256"
        }
      ],
      "payable": false,
      "stateMutability": "view",
      "type": "function"
    },
    {
      "constant": true,
      "inputs": [],
      "name": "getTotalBrags",
      "outputs": [
        {
          "name": "",
          "type": "uint256"
        }
      ],
      "payable": false,
      "stateMutability": "view",
      "type": "function"
    },
    {
      "constant": true,
      "inputs": [],
      "name": "getWinnerPot",
      "outputs": [
        {
          "name": "",
          "type": "uint256"
        }
      ],
      "payable": false,
      "stateMutability": "view",
      "type": "function"
    },
    {
      "constant": true,
      "inputs": [],
      "name": "getCurrentPot",
      "outputs": [
        {
          "name": "_amount",
          "type": "uint256"
        }
      ],
      "payable": false,
      "stateMutability": "view",
      "type": "function"
    },
    {
      "constant": false,
      "inputs": [],
      "name": "brag",
      "outputs": [],
      "payable": true,
      "stateMutability": "payable",
      "type": "function"
    },
    {
      "constant": false,
      "inputs": [
        {
          "name": "_message",
          "type": "string"
        }
      ],
      "name": "setTheKingsQuote",
      "outputs": [],
      "payable": true,
      "stateMutability": "payable",
      "type": "function"
    },
    {
      "constant": true,
      "inputs": [
        {
          "name": "_address",
          "type": "address"
        }
      ],
      "name": "isAlreadyUser",
      "outputs": [
        {
          "name": "status",
          "type": "bool"
        }
      ],
      "payable": false,
      "stateMutability": "view",
      "type": "function"
    },
    {
      "constant": true,
      "inputs": [
        {
          "name": "_address",
          "type": "address"
        }
      ],
      "name": "hasProfilePicture",
      "outputs": [
        {
          "name": "status",
          "type": "bool"
        }
      ],
      "payable": false,
      "stateMutability": "view",
      "type": "function"
    },
    {
      "constant": false,
      "inputs": [
        {
          "name": "_username",
          "type": "string"
        },
        {
          "name": "_pictureUrl",
          "type": "string"
        }
      ],
      "name": "createNewUser",
      "outputs": [],
      "payable": false,
      "stateMutability": "nonpayable",
      "type": "function"
    },
    {
      "constant": false,
      "inputs": [],
      "name": "resetQuote",
      "outputs": [],
      "payable": false,
      "stateMutability": "nonpayable",
      "type": "function"
    },
    {
      "constant": false,
      "inputs": [
        {
          "name": "_username",
          "type": "string"
        }
      ],
      "name": "resetUsername",
      "outputs": [],
      "payable": false,
      "stateMutability": "nonpayable",
      "type": "function"
    },
    {
      "constant": false,
      "inputs": [
        {
          "name": "_username",
          "type": "string"
        }
      ],
      "name": "resetUserPicture",
      "outputs": [],
      "payable": false,
      "stateMutability": "nonpayable",
      "type": "function"
    },
    {
      "constant": false,
      "inputs": [
        {
          "name": "_to",
          "type": "address"
        },
        {
          "name": "_value",
          "type": "uint256"
        }
      ],
      "name": "transfer",
      "outputs": [],
      "payable": false,
      "stateMutability": "nonpayable",
      "type": "function"
    },
    {
      "constant": false,
      "inputs": [
        {
          "name": "_from",
          "type": "address"
        },
        {
          "name": "_to",
          "type": "address"
        },
        {
          "name": "_value",
          "type": "uint256"
        }
      ],
      "name": "transferFrom",
      "outputs": [
        {
          "name": "success",
          "type": "bool"
        }
      ],
      "payable": false,
      "stateMutability": "nonpayable",
      "type": "function"
    },
    {
      "constant": false,
      "inputs": [
        {
          "name": "_spender",
          "type": "address"
        },
        {
          "name": "_value",
          "type": "uint256"
        }
      ],
      "name": "approve",
      "outputs": [
        {
          "name": "success",
          "type": "bool"
        }
      ],
      "payable": false,
      "stateMutability": "nonpayable",
      "type": "function"
    },
    {
      "constant": false,
      "inputs": [
        {
          "name": "_spender",
          "type": "address"
        },
        {
          "name": "_value",
          "type": "uint256"
        },
        {
          "name": "_extraData",
          "type": "bytes"
        }
      ],
      "name": "approveAndCall",
      "outputs": [
        {
          "name": "success",
          "type": "bool"
        }
      ],
      "payable": false,
      "stateMutability": "nonpayable",
      "type": "function"
    },
    {
      "constant": false,
      "inputs": [],
      "name": "reset",
      "outputs": [],
      "payable": false,
      "stateMutability": "nonpayable",
      "type": "function"
    }
  ],
  "bytecode": "0x60806040526000600960006101000a81548173ffffffffffffffffffffffffffffffffffffffff021916908373ffffffffffffffffffffffffffffffffffffffff1602179055507304fd8fcff717754de3ba18dac22a5fda7d69658e600a60006101000a81548173ffffffffffffffffffffffffffffffffffffffff021916908373ffffffffffffffffffffffffffffffffffffffff160217905550606060405190810160405280602381526020017f546561636820796f75722070656f706c65207769746820796f7572207769736481526020017f6f6d2e0000000000000000000000000000000000000000000000000000000000815250600b90805190602001906200010f92919062000250565b50608060405190810160405280604881526020017f68747470733a2f2f63646e322e69636f6e66696e6465722e636f6d2f6461746181526020017f2f69636f6e732f696f732d372d69636f6e732f35302f757365725f6d616c653281526020017f2d3531322e706e67000000000000000000000000000000000000000000000000815250600c9080519060200190620001aa92919062000250565b506658d15e17628000600d556000600e556000600f556000601055348015620001d257600080fd5b506000601160016101000a81548160ff0219169083151502179055506000601160006101000a81548160ff02191690831515021790555033600960006101000a81548173ffffffffffffffffffffffffffffffffffffffff021916908373ffffffffffffffffffffffffffffffffffffffff160217905550620002ff565b828054600181600116156101000203166002900490600052602060002090601f016020900481019282601f106200029357805160ff1916838001178555620002c4565b82800160010185558215620002c4579182015b82811115620002c3578251825591602001919060010190620002a6565b5b509050620002d39190620002d7565b5090565b620002fc91905b80821115620002f8576000816000905550600101620002de565b5090565b90565b613604806200030f6000396000f3006080604052600436106101cc576000357c0100000000000000000000000000000000000000000000000000000000900463ffffffff16806210ed99146101d157806305a95f041461031d578063095ea7b3146103345780631322e9d01461039957806323b872dd146103c85780632de3ad021461044d578063306781c1146104f65780634dfa3f181461052157806365058f4c146105d057806366ec60c7146105e757806369ddaad11461066b57806370a08231146106825780637a55d4bd146106d95780637b24a2511461087b5780638925d7bb146108d65780638f84aa091461090157806395a3bf6e146109585780639bef0c47146109875780639f468e8e14610a43578063a0b43a4e14610a9e578063a9059cbb14610ac9578063ac58853614610b16578063ae014f1d14610b20578063b2a9ab9c14610bdc578063b8bf0f1f14610c07578063b9d5d7fe14610c32578063ba77015414610c9b578063c394690914610d7d578063cae9ca5114610dd9578063cb0cedb814610e84578063d826f88f14610ee2578063dd62ed3e14610ef9578063e554482e14610f70578063e7eed1f714610f9b578063ec64f52f14610fc6578063efd0c85114610fd0578063f90f327814610fff575b600080fd5b3480156101dd57600080fd5b506101fc60048036038101908080359060200190929190505050611068565b604051808573ffffffffffffffffffffffffffffffffffffffff1673ffffffffffffffffffffffffffffffffffffffff1681526020018481526020018060200180602001838103835285818151815260200191508051906020019080838360005b8381101561027857808201518184015260208101905061025d565b50505050905090810190601f1680156102a55780820380516001836020036101000a031916815260200191505b50838103825284818151815260200191508051906020019080838360005b838110156102de5780820151818401526020810190506102c3565b50505050905090810190601f16801561030b5780820380516001836020036101000a031916815260200191505b50965050505050505060405180910390f35b34801561032957600080fd5b506103326112e8565b005b34801561034057600080fd5b5061037f600480360381019080803573ffffffffffffffffffffffffffffffffffffffff169060200190929190803590602001909291905050506113bc565b604051808215151515815260200191505060405180910390f35b3480156103a557600080fd5b506103ae611449565b604051808215151515815260200191505060405180910390f35b3480156103d457600080fd5b50610433600480360381019080803573ffffffffffffffffffffffffffffffffffffffff169060200190929190803573ffffffffffffffffffffffffffffffffffffffff169060200190929190803590602001909291905050506114bb565b604051808215151515815260200191505060405180910390f35b34801561045957600080fd5b506104b4600480360381019080803590602001908201803590602001908080601f01602080910402602001604051908101604052809392919081815260200183838082843782019150505050505091929192905050506115e8565b604051808273ffffffffffffffffffffffffffffffffffffffff1673ffffffffffffffffffffffffffffffffffffffff16815260200191505060405180910390f35b34801561050257600080fd5b5061050b611682565b6040518082815260200191505060405180910390f35b34801561052d57600080fd5b506105ce600480360381019080803590602001908201803590602001908080601f0160208091040260200160405190810160405280939291908181526020018383808284378201915050505050509192919290803590602001908201803590602001908080601f016020809104026020016040519081016040528093929190818152602001838380828437820191505050505050919291929050505061168c565b005b3480156105dc57600080fd5b506105e5611a3a565b005b3480156105f357600080fd5b5061064e600480360381019080803590602001908201803590602001908080601f0160208091040260200160405190810160405280939291908181526020018383808284378201915050505050509192919290505050611a78565b604051808381526020018281526020019250505060405180910390f35b34801561067757600080fd5b50610680611b60565b005b34801561068e57600080fd5b506106c3600480360381019080803573ffffffffffffffffffffffffffffffffffffffff169060200190929190505050611d1e565b6040518082815260200191505060405180910390f35b3480156106e557600080fd5b506106ee611d36565b604051808673ffffffffffffffffffffffffffffffffffffffff1673ffffffffffffffffffffffffffffffffffffffff168152602001858152602001806020018060200180602001848103845287818151815260200191508051906020019080838360005b8381101561076e578082015181840152602081019050610753565b50505050905090810190601f16801561079b5780820380516001836020036101000a031916815260200191505b50848103835286818151815260200191508051906020019080838360005b838110156107d45780820151818401526020810190506107b9565b50505050905090810190601f1680156108015780820380516001836020036101000a031916815260200191505b50848103825285818151815260200191508051906020019080838360005b8381101561083a57808201518184015260208101905061081f565b50505050905090810190601f1680156108675780820380516001836020036101000a031916815260200191505b509850505050505050505060405180910390f35b34801561088757600080fd5b506108bc600480360381019080803573ffffffffffffffffffffffffffffffffffffffff16906020019092919050505061208e565b604051808215151515815260200191505060405180910390f35b3480156108e257600080fd5b506108eb6120f5565b6040518082815260200191505060405180910390f35b34801561090d57600080fd5b506109166120ff565b604051808273ffffffffffffffffffffffffffffffffffffffff1673ffffffffffffffffffffffffffffffffffffffff16815260200191505060405180910390f35b34801561096457600080fd5b5061096d612125565b604051808215151515815260200191505060405180910390f35b34801561099357600080fd5b506109c8600480360381019080803573ffffffffffffffffffffffffffffffffffffffff16906020019092919050505061213c565b6040518080602001828103825283818151815260200191508051906020019080838360005b83811015610a085780820151818401526020810190506109ed565b50505050905090810190601f168015610a355780820380516001836020036101000a031916815260200191505b509250505060405180910390f35b348015610a4f57600080fd5b50610a84600480360381019080803573ffffffffffffffffffffffffffffffffffffffff169060200190929190505050612234565b604051808215151515815260200191505060405180910390f35b348015610aaa57600080fd5b50610ab361229b565b6040518082815260200191505060405180910390f35b348015610ad557600080fd5b50610b14600480360381019080803573ffffffffffffffffffffffffffffffffffffffff169060200190929190803590602001909291905050506122a5565b005b610b1e6122b4565b005b348015610b2c57600080fd5b50610b61600480360381019080803573ffffffffffffffffffffffffffffffffffffffff16906020019092919050505061235b565b6040518080602001828103825283818151815260200191508051906020019080838360005b83811015610ba1578082015181840152602081019050610b86565b50505050905090810190601f168015610bce5780820380516001836020036101000a031916815260200191505b509250505060405180910390f35b348015610be857600080fd5b50610bf1612453565b6040518082815260200191505060405180910390f35b348015610c1357600080fd5b50610c1c61245d565b6040518082815260200191505060405180910390f35b348015610c3e57600080fd5b50610c99600480360381019080803590602001908201803590602001908080601f0160208091040260200160405190810160405280939291908181526020018383808284378201915050505050509192919290505050612470565b005b348015610ca757600080fd5b50610d02600480360381019080803590602001908201803590602001908080601f0160208091040260200160405190810160405280939291908181526020018383808284378201915050505050509192919290505050612647565b6040518080602001828103825283818151815260200191508051906020019080838360005b83811015610d42578082015181840152602081019050610d27565b50505050905090810190601f168015610d6f5780820380516001836020036101000a031916815260200191505b509250505060405180910390f35b610dd7600480360381019080803590602001908201803590602001908080601f0160208091040260200160405190810160405280939291908181526020018383808284378201915050505050509192919290505050612757565b005b348015610de557600080fd5b50610e6a600480360381019080803573ffffffffffffffffffffffffffffffffffffffff16906020019092919080359060200190929190803590602001908201803590602001908080601f01602080910402602001604051908101604052809392919081815260200183838082843782019150505050505091929192905050506128b9565b604051808215151515815260200191505060405180910390f35b348015610e9057600080fd5b50610ec5600480360381019080803573ffffffffffffffffffffffffffffffffffffffff169060200190929190505050612a3c565b604051808381526020018281526020019250505060405180910390f35b348015610eee57600080fd5b50610ef7612a93565b005b348015610f0557600080fd5b50610f5a600480360381019080803573ffffffffffffffffffffffffffffffffffffffff169060200190929190803573ffffffffffffffffffffffffffffffffffffffff169060200190929190505050612b2a565b6040518082815260200191505060405180910390f35b348015610f7c57600080fd5b50610f85612b4f565b6040518082815260200191505060405180910390f35b348015610fa757600080fd5b50610fb0612b5f565b6040518082815260200191505060405180910390f35b610fce612b7e565b005b348015610fdc57600080fd5b50610fe5612def565b604051808215151515815260200191505060405180910390f35b34801561100b57600080fd5b50611066600480360381019080803590602001908201803590602001908080601f0160208091040260200160405190810160405280939291908181526020018383808284378201915050505050509192919290505050612e2b565b005b60008060608060138581548110151561107d57fe5b906000526020600020906003020160000160009054906101000a900473ffffffffffffffffffffffffffffffffffffffff1693506013858154811015156110c057fe5b90600052602060002090600302016001015492506110dd84612234565b156110f2576110eb8461235b565b9150611106565b602060405190810160405280600081525091505b600360008573ffffffffffffffffffffffffffffffffffffffff1673ffffffffffffffffffffffffffffffffffffffff16815260200190815260200160002060009054906101000a900460ff161561123757600760008573ffffffffffffffffffffffffffffffffffffffff1673ffffffffffffffffffffffffffffffffffffffff1681526020019081526020016000208054600181600116156101000203166002900480601f01602080910402602001604051908101604052809291908181526020018280546001816001161561010002031660029004801561122b5780601f106112005761010080835404028352916020019161122b565b820191906000526020600020905b81548152906001019060200180831161120e57829003601f168201915b505050505090506112d5565b600c8054600181600116156101000203166002900480601f0160208091040260200160405190810160405280929190818152602001828054600181600116156101000203166002900480156112cd5780601f106112a2576101008083540402835291602001916112cd565b820191906000526020600020905b8154815290600101906020018083116112b057829003601f168201915b505050505090505b8383838393509350935093509193509193565b60006112f2611449565b15156112fd57600080fd5b601360016013805490500381548110151561131457fe5b906000526020600020906003020160000160009054906101000a900473ffffffffffffffffffffffffffffffffffffffff1690508073ffffffffffffffffffffffffffffffffffffffff166108fc61136a61229b565b9081150290604051600060405180830381858888f19350505050158015611395573d6000803e3d6000fd5b5060006012819055506000601160016101000a81548160ff02191690831515021790555050565b600081600160003373ffffffffffffffffffffffffffffffffffffffff1673ffffffffffffffffffffffffffffffffffffffff16815260200190815260200160002060008573ffffffffffffffffffffffffffffffffffffffff1673ffffffffffffffffffffffffffffffffffffffff168152602001908152602001600020819055506001905092915050565b600060125443101580156114605750600060125414155b15611489576001601160006101000a81548160ff021916908315150217905550600190506114b8565b6012544310156114b7576000601160006101000a81548160ff021916908315150217905550600090506114b8565b5b90565b6000600160008573ffffffffffffffffffffffffffffffffffffffff1673ffffffffffffffffffffffffffffffffffffffff16815260200190815260200160002060003373ffffffffffffffffffffffffffffffffffffffff1673ffffffffffffffffffffffffffffffffffffffff16815260200190815260200160002054821115151561154857600080fd5b81600160008673ffffffffffffffffffffffffffffffffffffffff1673ffffffffffffffffffffffffffffffffffffffff16815260200190815260200160002060003373ffffffffffffffffffffffffffffffffffffffff1673ffffffffffffffffffffffffffffffffffffffff168152602001908152602001600020600082825403925050819055506115dd84848461302a565b600190509392505050565b6000806005836040518082805190602001908083835b60208310151561162357805182526020820191506020810190506020830392506115fe565b6001836020036101000a038019825116818451168082178552505050505050905001915050908152602001604051809103902060009054906101000a900473ffffffffffffffffffffffffffffffffffffffff16905080915050919050565b6000601254905090565b6116946133c4565b61169d33612234565b1515156116a957600080fd5b60408051908101604052803373ffffffffffffffffffffffffffffffffffffffff16815260200184815250905082600460003373ffffffffffffffffffffffffffffffffffffffff1673ffffffffffffffffffffffffffffffffffffffff16815260200190815260200160002090805190602001906117299291906133f4565b50336005846040518082805190602001908083835b602083101515611763578051825260208201915060208101905060208303925061173e565b6001836020036101000a038019825116818451168082178552505050505050905001915050908152602001604051809103902060006101000a81548173ffffffffffffffffffffffffffffffffffffffff021916908373ffffffffffffffffffffffffffffffffffffffff160217905550816006846040518082805190602001908083835b60208310151561180d57805182526020820191506020810190506020830392506117e8565b6001836020036101000a038019825116818451168082178552505050505050905001915050908152602001604051809103902090805190602001906118539291906133f4565b5081600760003373ffffffffffffffffffffffffffffffffffffffff1673ffffffffffffffffffffffffffffffffffffffff16815260200190815260200160002090805190602001906118a79291906133f4565b506000600860003373ffffffffffffffffffffffffffffffffffffffff1673ffffffffffffffffffffffffffffffffffffffff1681526020019081526020016000208190555060016014829080600181540180825580915050906001820390600052602060002090600202016000909192909190915060008201518160000160006101000a81548173ffffffffffffffffffffffffffffffffffffffff021916908373ffffffffffffffffffffffffffffffffffffffff1602179055506020820151816001019080519060200190611980929190613474565b50505050506001600260003373ffffffffffffffffffffffffffffffffffffffff1673ffffffffffffffffffffffffffffffffffffffff16815260200190815260200160002060006101000a81548160ff0219169083151502179055506001600360003373ffffffffffffffffffffffffffffffffffffffff1673ffffffffffffffffffffffffffffffffffffffff16815260200190815260200160002060006101000a81548160ff021916908315150217905550505050565b611a42612125565b1515611a76576001601160016101000a81548160ff021916908315150217905550611a6f43614380613337565b6012819055505b565b60008060006005846040518082805190602001908083835b602083101515611ab55780518252602082019150602081019050602083039250611a90565b6001836020036101000a038019825116818451168082178552505050505050905001915050908152602001604051809103902060009054906101000a900473ffffffffffffffffffffffffffffffffffffffff169050600860008273ffffffffffffffffffffffffffffffffffffffff1673ffffffffffffffffffffffffffffffffffffffff168152602001908152602001600020549250600d548302915082829250925050915091565b600960009054906101000a900473ffffffffffffffffffffffffffffffffffffffff1673ffffffffffffffffffffffffffffffffffffffff163373ffffffffffffffffffffffffffffffffffffffff16141515611bbc57600080fd5b600b6013600160138054905003815481101515611bd557fe5b90600052602060002090600302016002019080546001816001161561010002031660029004611c059291906134f4565b506001600860006013600160138054905003815481101515611c2357fe5b906000526020600020906003020160000160009054906101000a900473ffffffffffffffffffffffffffffffffffffffff1673ffffffffffffffffffffffffffffffffffffffff1673ffffffffffffffffffffffffffffffffffffffff1681526020019081526020016000205401600860006013600160138054905003815481101515611cac57fe5b906000526020600020906003020160000160009054906101000a900473ffffffffffffffffffffffffffffffffffffffff1673ffffffffffffffffffffffffffffffffffffffff1673ffffffffffffffffffffffffffffffffffffffff16815260200190815260200160002081905550565b60006020528060005260406000206000915090505481565b60008060608060606013600160138054905003815481101515611d5557fe5b906000526020600020906003020160000160009054906101000a900473ffffffffffffffffffffffffffffffffffffffff1694506013600160138054905003815481101515611da057fe5b90600052602060002090600302016001015493506013600160138054905003815481101515611dcb57fe5b90600052602060002090600302016002018054600181600116156101000203166002900480601f016020809104026020016040519081016040528092919081815260200182805460018160011615610100020316600290048015611e705780601f10611e4557610100808354040283529160200191611e70565b820191906000526020600020905b815481529060010190602001808311611e5357829003601f168201915b50505050509250611e8085612234565b15611e9557611e8e8561235b565b9150611ea9565b602060405190810160405280600081525091505b600360008673ffffffffffffffffffffffffffffffffffffffff1673ffffffffffffffffffffffffffffffffffffffff16815260200190815260200160002060009054906101000a900460ff1615611fda57600760008673ffffffffffffffffffffffffffffffffffffffff1673ffffffffffffffffffffffffffffffffffffffff1681526020019081526020016000208054600181600116156101000203166002900480601f016020809104026020016040519081016040528092919081815260200182805460018160011615610100020316600290048015611fce5780601f10611fa357610100808354040283529160200191611fce565b820191906000526020600020905b815481529060010190602001808311611fb157829003601f168201915b50505050509050612078565b600c8054600181600116156101000203166002900480601f0160208091040260200160405190810160405280929190818152602001828054600181600116156101000203166002900480156120705780601f1061204557610100808354040283529160200191612070565b820191906000526020600020905b81548152906001019060200180831161205357829003601f168201915b505050505090505b8484848484945094509450945094509091929394565b6000600260008373ffffffffffffffffffffffffffffffffffffffff1673ffffffffffffffffffffffffffffffffffffffff16815260200190815260200160002060009054906101000a900460ff16156120eb57600190506120f0565b600090505b919050565b6000601054905090565b600960009054906101000a900473ffffffffffffffffffffffffffffffffffffffff1681565b6000601160019054906101000a900460ff16905090565b606061214782612234565b151561215257600080fd5b600760008373ffffffffffffffffffffffffffffffffffffffff1673ffffffffffffffffffffffffffffffffffffffff1681526020019081526020016000208054600181600116156101000203166002900480601f0160208091040260200160405190810160405280929190818152602001828054600181600116156101000203166002900480156122255780601f106121fa57610100808354040283529160200191612225565b820191906000526020600020905b81548152906001019060200180831161220857829003601f168201915b50505050509050809050919050565b6000600260008373ffffffffffffffffffffffffffffffffffffffff1673ffffffffffffffffffffffffffffffffffffffff16815260200190815260200160002060009054906101000a900460ff16156122915760019050612296565b600090505b919050565b6000600f54905090565b6122b033838361302a565b5050565b6122bc612125565b15156122c757600080fd5b6608e1bc9bf0400034101515156122dd57600080fd5b6122ea60125460f0613337565b601281905550600a60009054906101000a900473ffffffffffffffffffffffffffffffffffffffff1673ffffffffffffffffffffffffffffffffffffffff166108fc349081150290604051600060405180830381858888f19350505050158015612358573d6000803e3d6000fd5b50565b606061236682612234565b151561237157600080fd5b600460008373ffffffffffffffffffffffffffffffffffffffff1673ffffffffffffffffffffffffffffffffffffffff1681526020019081526020016000208054600181600116156101000203166002900480601f0160208091040260200160405190810160405280929190818152602001828054600181600116156101000203166002900480156124445780601f1061241957610100808354040283529160200191612444565b820191906000526020600020905b81548152906001019060200180831161242757829003601f168201915b50505050509050809050919050565b6000600e54905090565b600061246b60125443613355565b905090565b6000600960009054906101000a900473ffffffffffffffffffffffffffffffffffffffff1673ffffffffffffffffffffffffffffffffffffffff163373ffffffffffffffffffffffffffffffffffffffff161415156124ce57600080fd5b6005826040518082805190602001908083835b60208310151561250657805182526020820191506020810190506020830392506124e1565b6001836020036101000a038019825116818451168082178552505050505050905001915050908152602001604051809103902060009054906101000a900473ffffffffffffffffffffffffffffffffffffffff169050600c600760008373ffffffffffffffffffffffffffffffffffffffff1673ffffffffffffffffffffffffffffffffffffffff16815260200190815260200160002090805460018160011615610100020316600290046125bc9291906134f4565b506001600860008373ffffffffffffffffffffffffffffffffffffffff1673ffffffffffffffffffffffffffffffffffffffff1681526020019081526020016000205401600860008373ffffffffffffffffffffffffffffffffffffffff1673ffffffffffffffffffffffffffffffffffffffff168152602001908152602001600020819055505050565b60606006826040518082805190602001908083835b602083101515612681578051825260208201915060208101905060208303925061265c565b6001836020036101000a03801982511681845116808217855250505050505090500191505090815260200160405180910390208054600181600116156101000203166002900480601f0160208091040260200160405190810160405280929190818152602001828054600181600116156101000203166002900480156127485780601f1061271d57610100808354040283529160200191612748565b820191906000526020600020905b81548152906001019060200180831161272b57829003601f168201915b50505050509050809050919050565b600080600860003373ffffffffffffffffffffffffffffffffffffffff1673ffffffffffffffffffffffffffffffffffffffff1681526020019081526020016000205411156127f357600860003373ffffffffffffffffffffffffffffffffffffffff1673ffffffffffffffffffffffffffffffffffffffff16815260200190815260200160002054600d540234101515156127f257600080fd5b5b601360016013805490500381548110151561280a57fe5b906000526020600020906003020160000160009054906101000a900473ffffffffffffffffffffffffffffffffffffffff1690508073ffffffffffffffffffffffffffffffffffffffff163373ffffffffffffffffffffffffffffffffffffffff1614151561287857600080fd5b81601360016013805490500381548110151561289057fe5b906000526020600020906003020160020190805190602001906128b49291906133f4565b505050565b6000808490506128c985856113bc565b15612a33578073ffffffffffffffffffffffffffffffffffffffff16638f4ffcb1338630876040518563ffffffff167c0100000000000000000000000000000000000000000000000000000000028152600401808573ffffffffffffffffffffffffffffffffffffffff1673ffffffffffffffffffffffffffffffffffffffff1681526020018481526020018373ffffffffffffffffffffffffffffffffffffffff1673ffffffffffffffffffffffffffffffffffffffff16815260200180602001828103825283818151815260200191508051906020019080838360005b838110156129c35780820151818401526020810190506129a8565b50505050905090810190601f1680156129f05780820380516001836020036101000a031916815260200191505b5095505050505050600060405180830381600087803b158015612a1257600080fd5b505af1158015612a26573d6000803e3d6000fd5b5050505060019150612a34565b5b509392505050565b600080600860008473ffffffffffffffffffffffffffffffffffffffff1673ffffffffffffffffffffffffffffffffffffffff168152602001908152602001600020549150600d5482029050818191509150915091565b600960009054906101000a900473ffffffffffffffffffffffffffffffffffffffff1673ffffffffffffffffffffffffffffffffffffffff163373ffffffffffffffffffffffffffffffffffffffff16141515612aef57600080fd5b600960009054906101000a900473ffffffffffffffffffffffffffffffffffffffff1673ffffffffffffffffffffffffffffffffffffffff16ff5b6001602052816000526040600020602052806000526040600020600091509150505481565b6000601380549050905080905090565b60003073ffffffffffffffffffffffffffffffffffffffff1631905090565b6000612b8861357b565b612b9d601e612b9834606461336e565b613389565b91506000601380549050141515612be557346013600160138054905003815481101515612bc657fe5b906000526020600020906003020160010154101515612be457600080fd5b5b6060604051908101604052803373ffffffffffffffffffffffffffffffffffffffff168152602001348152602001600b8054600181600116156101000203166002900480601f016020809104026020016040519081016040528092919081815260200182805460018160011615610100020316600290048015612ca95780601f10612c7e57610100808354040283529160200191612ca9565b820191906000526020600020905b815481529060010190602001808311612c8c57829003601f168201915b505050505081525090506013819080600181540180825580915050906001820390600052602060002090600302016000909192909190915060008201518160000160006101000a81548173ffffffffffffffffffffffffffffffffffffffff021916908373ffffffffffffffffffffffffffffffffffffffff160217905550602082015181600101556040820151816002019080519060200190612d4e929190613474565b5050505034600e5401600e81905550612d673483613355565b600f5401600f81905550600a60009054906101000a900473ffffffffffffffffffffffffffffffffffffffff1673ffffffffffffffffffffffffffffffffffffffff166108fc839081150290604051600060405180830381858888f19350505050158015612dd9573d6000803e3d6000fd5b5060016010600082825401925050819055505050565b60006012544310158015612e065750600060125414155b15612e145760019050612e28565b601254431015612e275760009050612e28565b5b90565b6000600960009054906101000a900473ffffffffffffffffffffffffffffffffffffffff1673ffffffffffffffffffffffffffffffffffffffff163373ffffffffffffffffffffffffffffffffffffffff16141515612e8957600080fd5b6005826040518082805190602001908083835b602083101515612ec15780518252602082019150602081019050602083039250612e9c565b6001836020036101000a038019825116818451168082178552505050505050905001915050908152602001604051809103902060009054906101000a900473ffffffffffffffffffffffffffffffffffffffff1690506040805190810160405280600481526020017f4d69636b00000000000000000000000000000000000000000000000000000000815250600460008373ffffffffffffffffffffffffffffffffffffffff1673ffffffffffffffffffffffffffffffffffffffff1681526020019081526020016000209080519060200190612f9f9291906133f4565b506001600860008373ffffffffffffffffffffffffffffffffffffffff1673ffffffffffffffffffffffffffffffffffffffff1681526020019081526020016000205401600860008373ffffffffffffffffffffffffffffffffffffffff1673ffffffffffffffffffffffffffffffffffffffff168152602001908152602001600020819055505050565b6000808373ffffffffffffffffffffffffffffffffffffffff161415151561305157600080fd5b816000808673ffffffffffffffffffffffffffffffffffffffff1673ffffffffffffffffffffffffffffffffffffffff168152602001908152602001600020541015151561309e57600080fd5b6000808473ffffffffffffffffffffffffffffffffffffffff1673ffffffffffffffffffffffffffffffffffffffff16815260200190815260200160002054826000808673ffffffffffffffffffffffffffffffffffffffff1673ffffffffffffffffffffffffffffffffffffffff168152602001908152602001600020540111151561312a57600080fd5b6000808473ffffffffffffffffffffffffffffffffffffffff1673ffffffffffffffffffffffffffffffffffffffff168152602001908152602001600020546000808673ffffffffffffffffffffffffffffffffffffffff1673ffffffffffffffffffffffffffffffffffffffff16815260200190815260200160002054019050816000808673ffffffffffffffffffffffffffffffffffffffff1673ffffffffffffffffffffffffffffffffffffffff16815260200190815260200160002060008282540392505081905550816000808573ffffffffffffffffffffffffffffffffffffffff1673ffffffffffffffffffffffffffffffffffffffff168152602001908152602001600020600082825401925050819055508273ffffffffffffffffffffffffffffffffffffffff168473ffffffffffffffffffffffffffffffffffffffff167fddf252ad1be2c89b69c2b068fc378daa952ba7f163c4a11628f55a4df523b3ef846040518082815260200191505060405180910390a3806000808573ffffffffffffffffffffffffffffffffffffffff1673ffffffffffffffffffffffffffffffffffffffff168152602001908152602001600020546000808773ffffffffffffffffffffffffffffffffffffffff1673ffffffffffffffffffffffffffffffffffffffff168152602001908152602001600020540114151561333157fe5b50505050565b600080828401905083811015151561334b57fe5b8091505092915050565b600082821115151561336357fe5b818303905092915050565b600080828481151561337c57fe5b0490508091505092915050565b600080600084141561339e57600091506133bd565b82840290508284828115156133af57fe5b041415156133b957fe5b8091505b5092915050565b6040805190810160405280600073ffffffffffffffffffffffffffffffffffffffff168152602001606081525090565b828054600181600116156101000203166002900490600052602060002090601f016020900481019282601f1061343557805160ff1916838001178555613463565b82800160010185558215613463579182015b82811115613462578251825591602001919060010190613447565b5b50905061347091906135b3565b5090565b828054600181600116156101000203166002900490600052602060002090601f016020900481019282601f106134b557805160ff19168380011785556134e3565b828001600101855582156134e3579182015b828111156134e25782518255916020019190600101906134c7565b5b5090506134f091906135b3565b5090565b828054600181600116156101000203166002900490600052602060002090601f016020900481019282601f1061352d578054855561356a565b8280016001018555821561356a57600052602060002091601f016020900482015b8281111561356957825482559160010191906001019061354e565b5b50905061357791906135b3565b5090565b606060405190810160405280600073ffffffffffffffffffffffffffffffffffffffff16815260200160008152602001606081525090565b6135d591905b808211156135d15760008160009055506001016135b9565b5090565b905600a165627a7a723058201a7043f1b4943c45707b94f1d8c419c820ec794252b04de53612d14c31d3e5420029",
  "source": "pragma solidity ^0.4.24;\r\n\r\ninterface tokenRecipient {\r\n    function receiveApproval(address _from, uint256 _value, address _token, bytes _extraData) external;\r\n}\r\n\r\ncontract braggerContract {\r\n\r\n/*********************************/\r\n/*********** MAPPINGS ************/\r\n/*********************************/\r\n\r\n    // This creates an array with all balances\r\n    mapping (address => uint256) public balanceOf;\r\n    mapping (address => mapping (address => uint256)) public allowance;\r\n\r\n    mapping (address => bool) private isUser;\r\n    mapping (address => bool) private hasPicture;\r\n    mapping (address => string) private userWalletToUserName;\r\n    mapping (string => address) private userNameToUserWallet;\r\n    mapping (string => string) private userNameToPicture;\r\n    mapping (address => string) private userWalletToPicture;\r\n    mapping (address => uint256) private fineLevel;\r\n\r\n/*********************************/\r\n/************* EVENTS ************/\r\n/*********************************/\r\n\r\n    // This generates a public event on the blockchain that will notify clients\r\n    event Transfer(address indexed from, address indexed to, uint256 value);\r\n\r\n    // This notifies clients about the amount burnt\r\n    event Burn(address indexed from, uint256 value);\r\n\r\n/*********************************/\r\n/******** FREE VARIABLES *********/\r\n/*********************************/\r\n\r\n    address public ownerAddress = 0x000;\r\n    address private bragAddress = 0x04fd8fcff717754dE3BA18dAC22A5Fda7D69658E;\r\n\r\n    string private initialQuote = \"Teach your people with your wisdom.\";\r\n    /******SET PICTURE*/\r\n    string private initialPicture = \"https://cdn2.iconfinder.com/data/icons/ios-7-icons/50/user_male2-512.png\";\r\n\r\n    uint256 basicFine = 25000000000000000;\r\n\r\n    uint256 totalBraggedValue = 0;\r\n\r\n    uint256 winningpot = 0;\r\n\r\n    uint256 totalbrags = 0;\r\n\r\n    bool payoutReady;\r\n    bool payoutRequested;\r\n    uint256 payoutBlock;\r\n\r\n/*********************************/\r\n/*********** DATA TYPES **********/\r\n/*********************************/\r\n\r\n    struct Bragger{\r\n        address braggerAddress;\r\n        uint256 braggedAmount;\r\n        string braggerQuote;\r\n    }\r\n\r\n    Bragger[] private braggers;\r\n\r\n    struct User{\r\n        address userAddress;\r\n        string userName;\r\n    }\r\n\r\n    User[] private users;\r\n\r\n/*********************************/\r\n/*********** MODIFIER ************/\r\n/*********************************/\r\n\r\n    /// @dev Access modifier for CEO-only functionality\r\n    modifier onlyCreator() {\r\n        require(msg.sender == ownerAddress);\r\n        _;\r\n    }\r\n\r\n\r\n/*********************************/\r\n/********** CONSTRUCTOR **********/\r\n/*********************************/\r\n\r\n    constructor() public {\r\n        payoutRequested = false;\r\n        payoutReady = false;\r\n        ownerAddress = msg.sender;\r\n    }\r\n\r\n/*********************************/\r\n/******* PAYOUT FUNCTIONS ********/\r\n/*********************************/\r\n\r\n    function requestPayout() public {\r\n        //require(isUser[msg.sender]);\r\n        if(!getPayoutRequestedState()) {\r\n            payoutRequested = true;\r\n            payoutBlock = SafeMath.add(block.number, 17280);\r\n        }\r\n    }\r\n\r\n    function delayPayout() public payable {\r\n        require(getPayoutRequestedState());\r\n        //require(isUser[msg.sender]);\r\n        require(msg.value>=2500000000000000);\r\n        payoutBlock = SafeMath.add(payoutBlock, 240);\r\n        bragAddress.transfer(msg.value);\r\n    }\r\n\r\n    function triggerPayout() public {\r\n        //require(isUser[msg.sender]);\r\n        require(checkPayoutReadyState());\r\n        address _winner = braggers[braggers.length-1].braggerAddress;\r\n        _winner.transfer(getWinnerPot());\r\n        payoutBlock = 0;\r\n        payoutRequested = false;\r\n    }\r\n\r\n     function checkPayoutReadyState() public returns(bool){\r\n        if(block.number >= payoutBlock && payoutBlock != 0){\r\n            payoutReady = true;\r\n            return true;\r\n        }\r\n\r\n        if(block.number < payoutBlock){\r\n            payoutReady = false;\r\n            return false;\r\n        }\r\n    }\r\n\r\n/*********************************/\r\n/************ GETTERS ************/\r\n/*********************************/\r\n\r\n    function getPayoutRequestedState() public view returns(bool){\r\n        return payoutRequested;\r\n    }\r\n\r\n    function getPayoutReadyState() public view returns(bool){\r\n         if(block.number>=payoutBlock && payoutBlock != 0){\r\n            return true;\r\n        }\r\n\r\n        if(block.number < payoutBlock){\r\n            return false;\r\n        }\r\n    }\r\n\r\n    function getCurrentPayoutBlock() public view returns(uint){\r\n        return payoutBlock;\r\n    }\r\n\r\n    function getRemainingBlocksUntilPayoutk() public view returns(uint){\r\n        return SafeMath.sub(payoutBlock, block.number);\r\n    }\r\n\r\n    function getTotalBraggedVolume() public view returns (uint256 _amount){\r\n        return totalBraggedValue;\r\n    }\r\n\r\n    function getCurrentBragKing() public view returns(address _bragger, uint256 _amount, string _quote, string _username, string _picture){\r\n        _bragger = braggers[braggers.length-1].braggerAddress;\r\n        _amount = braggers[braggers.length-1].braggedAmount;\r\n        _quote = braggers[braggers.length-1].braggerQuote;\r\n        if(isAlreadyUser(_bragger)){\r\n            _username = getUserNameByWallet(_bragger);\r\n        } else {\r\n            _username = \"\";\r\n        }\r\n\r\n        if(hasPicture[_bragger]){\r\n            _picture = userWalletToPicture[_bragger];\r\n        } else {\r\n            _picture = initialPicture;\r\n        }\r\n\r\n        return (_bragger, _amount, _quote, _username, _picture);\r\n    }\r\n\r\n    function arrayLength()public view returns(uint256 length){\r\n        length = braggers.length;\r\n        return length;\r\n    }\r\n\r\n    function getBraggerAtIndex(uint256 _index) public view returns(address _bragger, uint256 _brag, string _username, string _picture){\r\n        _bragger = braggers[_index].braggerAddress;\r\n        _brag = braggers[_index].braggedAmount;\r\n\r\n        if(isAlreadyUser(_bragger)){\r\n            _username = getUserNameByWallet(_bragger);\r\n        } else {\r\n            _username = \"\";\r\n        }\r\n\r\n         if(hasPicture[_bragger]){\r\n            _picture = userWalletToPicture[_bragger];\r\n        } else {\r\n            _picture = initialPicture;\r\n        }\r\n\r\n        return (_bragger, _brag, _username, _picture);\r\n    }\r\n\r\n    function getUserNameByWallet(address _wallet) public view returns (string _username){\r\n        require(isAlreadyUser(_wallet));\r\n        _username = userWalletToUserName[_wallet];\r\n        return _username;\r\n    }\r\n\r\n     function getUserPictureByWallet(address _wallet) public view returns (string _url){\r\n        require(isAlreadyUser(_wallet));\r\n        _url = userWalletToPicture[_wallet];\r\n        return _url;\r\n    }\r\n\r\n    function getUserWalletByUsername(string _username) public view returns(address _address){\r\n        address _user = userNameToUserWallet[_username];\r\n        return (_user);\r\n    }\r\n\r\n    function getUserPictureByUsername(string _username) public view returns(string _url){\r\n        _url = userNameToPicture[_username];\r\n        return (_url);\r\n    }\r\n\r\n    function getFineLevelOfAddress(address _user) public view returns(uint256 _fineLevel, uint256 _fineAmount){\r\n        _fineLevel = fineLevel[_user];\r\n        _fineAmount = _fineLevel * basicFine;\r\n        return (_fineLevel, _fineAmount);\r\n    }\r\n\r\n    function getFineLevelOfUsername(string _username) public view returns(uint256 _fineLevel, uint256 _fineAmount){\r\n        address _user = userNameToUserWallet[_username];\r\n        _fineLevel = fineLevel[_user];\r\n        _fineAmount = _fineLevel * basicFine;\r\n        return (_fineLevel, _fineAmount);\r\n    }\r\n\r\n    function getTotalBrags() public view returns(uint256){\r\n        return totalbrags;\r\n    }\r\n\r\n    function getWinnerPot() public view returns(uint256){\r\n        return winningpot;\r\n    }\r\n\r\n/*********************************/\r\n/****** BRAGING FUNCTIONS ********/\r\n/*********************************/\r\n\r\n    function getCurrentPot() public view returns (uint256 _amount){\r\n        return address(this).balance;\r\n    }\r\n\r\n\r\n    function brag() public payable{\r\n\r\n        uint256 shortage = SafeMath.mul(30,SafeMath.div(msg.value, 100));\r\n\r\n        if(braggers.length != 0){\r\n         require(braggers[braggers.length-1].braggedAmount < msg.value);\r\n        }\r\n\r\n        Bragger memory _bragger = Bragger({\r\n            braggerAddress: msg.sender,\r\n            braggedAmount: msg.value,\r\n            braggerQuote: initialQuote\r\n        });\r\n\r\n        braggers.push(_bragger);\r\n\r\n        totalBraggedValue = totalBraggedValue + msg.value;\r\n\r\n        winningpot = winningpot + SafeMath.sub(msg.value, shortage);\r\n\r\n        bragAddress.transfer(shortage);\r\n\r\n        totalbrags += 1;\r\n    }\r\n\r\n/*********************************/\r\n/******* USER INTERACTION ********/\r\n/*********************************/\r\n\r\n    function setTheKingsQuote(string _message) public payable{\r\n        if(fineLevel[msg.sender] > 0){\r\n            require(msg.value >= (basicFine * fineLevel[msg.sender]));\r\n        }\r\n        address currentKing = braggers[braggers.length-1].braggerAddress;\r\n        require(msg.sender == currentKing);\r\n        braggers[braggers.length-1].braggerQuote = _message;\r\n    }\r\n\r\n/*********************************/\r\n/********* USER CREATION *********/\r\n/*********************************/\r\n\r\n    function isAlreadyUser(address _address) public view returns (bool status){\r\n        if (isUser[_address]){\r\n            return true;\r\n        } else {\r\n            return false;\r\n        }\r\n    }\r\n\r\n    function hasProfilePicture(address _address) public view returns (bool status){\r\n        if (isUser[_address]){\r\n            return true;\r\n        } else {\r\n            return false;\r\n        }\r\n    }\r\n\r\n    function createNewUser(string _username, string _pictureUrl) public {\r\n\r\n        require(!isAlreadyUser(msg.sender));\r\n\r\n        User memory _user = User({\r\n            userAddress: msg.sender,\r\n            userName: _username\r\n        });\r\n\r\n        userWalletToUserName[msg.sender] = _username;\r\n        userNameToUserWallet[_username] = msg.sender;\r\n        userNameToPicture[_username] = _pictureUrl;\r\n        userWalletToPicture[msg.sender] = _pictureUrl;\r\n        fineLevel[msg.sender] = 0;\r\n\r\n        users.push(_user) - 1;\r\n        isUser[msg.sender] = true;\r\n        hasPicture[msg.sender] = true;\r\n    }\r\n\r\n/*********************************/\r\n/******** OWNER FUNCTIONS ********/\r\n/*********************************/\r\n\r\n    function resetQuote()public onlyCreator{\r\n        braggers[braggers.length-1].braggerQuote = initialQuote;\r\n        fineLevel[braggers[braggers.length-1].braggerAddress] = fineLevel[braggers[braggers.length-1].braggerAddress] + 1;\r\n    }\r\n\r\n    function resetUsername(string _username)public onlyCreator{\r\n        address user = userNameToUserWallet[_username];\r\n        userWalletToUserName[user] = \"Mick\";\r\n        fineLevel[user] = fineLevel[user] + 1;\r\n    }\r\n\r\n    function resetUserPicture(string _username)public onlyCreator{\r\n        address user = userNameToUserWallet[_username];\r\n        userWalletToPicture[user] = initialPicture;\r\n        fineLevel[user] = fineLevel[user] + 1;\r\n    }\r\n\r\n    /********** ResetUserPicture */\r\n\r\n/*********************************/\r\n/******** LEGACY FUNCIONS ********/\r\n/*********************************/\r\n\r\n    function _transfer(address _from, address _to, uint _value) internal {\r\n        // Prevent transfer to 0x0 address. Use burn() instead\r\n        require(_to != 0x0);\r\n        // Check if the sender has enough\r\n        require(balanceOf[_from] >= _value);\r\n        // Check for overflows\r\n        require(balanceOf[_to] + _value > balanceOf[_to]);\r\n        // Save this for an assertion in the future\r\n        uint previousBalances = balanceOf[_from] + balanceOf[_to];\r\n        // Subtract from the sender\r\n        balanceOf[_from] -= _value;\r\n        // Add the same to the recipient\r\n        balanceOf[_to] += _value;\r\n        emit Transfer(_from, _to, _value);\r\n        // Asserts are used to use static analysis to find bugs in your code. They should never fail\r\n        assert(balanceOf[_from] + balanceOf[_to] == previousBalances);\r\n    }\r\n\r\n    function transfer(address _to, uint256 _value) public {\r\n        _transfer(msg.sender, _to, _value);\r\n    }\r\n\r\n    function transferFrom(address _from, address _to, uint256 _value) public returns (bool success) {\r\n        require(_value <= allowance[_from][msg.sender]);     // Check allowance\r\n        allowance[_from][msg.sender] -= _value;\r\n        _transfer(_from, _to, _value);\r\n        return true;\r\n    }\r\n\r\n    function approve(address _spender, uint256 _value) public\r\n        returns (bool success) {\r\n        allowance[msg.sender][_spender] = _value;\r\n        return true;\r\n    }\r\n\r\n    function approveAndCall(address _spender, uint256 _value, bytes _extraData)\r\n        public\r\n        returns (bool success) {\r\n        tokenRecipient spender = tokenRecipient(_spender);\r\n        if (approve(_spender, _value)) {\r\n            spender.receiveApproval(msg.sender, _value, this, _extraData);\r\n            return true;\r\n        }\r\n    }\r\n\r\n    function reset()public onlyCreator {\r\n        selfdestruct(ownerAddress);\r\n    }\r\n\r\n}\r\n\r\n/*********************************/\r\n/*********** CALC LIB ************/\r\n/*********************************/\r\n\r\nlibrary SafeMath {\r\n\r\n  function mul(uint256 a, uint256 b) internal pure returns (uint256) {\r\n    if (a == 0) {\r\n      return 0;\r\n    }\r\n    uint256 c = a * b;\r\n    assert(c / a == b);\r\n    return c;\r\n  }\r\n\r\n  function div(uint256 a, uint256 b) internal pure returns (uint256) {\r\n    // assert(b > 0); // Solidity automatically throws when dividing by 0\r\n    uint256 c = a / b;\r\n    // assert(a == b * c + a % b); // There is no case in which this doesn't hold\r\n    return c;\r\n  }\r\n\r\n  function sub(uint256 a, uint256 b) internal pure returns (uint256) {\r\n    assert(b <= a);\r\n    return a - b;\r\n  }\r\n\r\n  function add(uint256 a, uint256 b) internal pure returns (uint256) {\r\n    uint256 c = a + b;\r\n    assert(c >= a);\r\n    return c;\r\n  }\r\n}\r\n",
  "sourcePath": "/Users/Shoxc/Documents/repos/bragger/Bragger_Webproject/contracts/braggerContract.sol",
  "compiler": {
    "name": "solc",
    "version": "0.4.24+commit.e67f0147.Emscripten.clang"
  },
  "schemaVersion": "2.0.1",
  "updatedAt": "2018-08-28T11:43:19.138Z"
}