{
  "contractName": "braggerContract",
  "abi": [
    {
      "constant": true,
      "inputs": [
        {
          "name": "",
          "type": "address"
        }
      ],
      "name": "balanceOf",
      "outputs": [
        {
          "name": "",
          "type": "uint256"
        }
      ],
      "payable": false,
      "stateMutability": "view",
      "type": "function"
    },
    {
      "constant": true,
      "inputs": [],
      "name": "ownerAddress",
      "outputs": [
        {
          "name": "",
          "type": "address"
        }
      ],
      "payable": false,
      "stateMutability": "view",
      "type": "function"
    },
    {
      "constant": true,
      "inputs": [
        {
          "name": "",
          "type": "address"
        },
        {
          "name": "",
          "type": "address"
        }
      ],
      "name": "allowance",
      "outputs": [
        {
          "name": "",
          "type": "uint256"
        }
      ],
      "payable": false,
      "stateMutability": "view",
      "type": "function"
    },
    {
      "inputs": [],
      "payable": false,
      "stateMutability": "nonpayable",
      "type": "constructor"
    },
    {
      "anonymous": false,
      "inputs": [
        {
          "indexed": true,
          "name": "from",
          "type": "address"
        },
        {
          "indexed": true,
          "name": "to",
          "type": "address"
        },
        {
          "indexed": false,
          "name": "value",
          "type": "uint256"
        }
      ],
      "name": "Transfer",
      "type": "event"
    },
    {
      "anonymous": false,
      "inputs": [
        {
          "indexed": true,
          "name": "from",
          "type": "address"
        },
        {
          "indexed": false,
          "name": "value",
          "type": "uint256"
        }
      ],
      "name": "Burn",
      "type": "event"
    },
    {
      "constant": true,
      "inputs": [],
      "name": "getTotalBraggedVolume",
      "outputs": [
        {
          "name": "_amount",
          "type": "uint256"
        }
      ],
      "payable": false,
      "stateMutability": "view",
      "type": "function"
    },
    {
      "constant": true,
      "inputs": [],
      "name": "getCurrentBragKing",
      "outputs": [
        {
          "name": "_bragger",
          "type": "address"
        },
        {
          "name": "_amount",
          "type": "uint256"
        },
        {
          "name": "_quote",
          "type": "string"
        },
        {
          "name": "_username",
          "type": "string"
        },
        {
          "name": "_picture",
          "type": "string"
        }
      ],
      "payable": false,
      "stateMutability": "view",
      "type": "function"
    },
    {
      "constant": true,
      "inputs": [],
      "name": "arrayLength",
      "outputs": [
        {
          "name": "length",
          "type": "uint256"
        }
      ],
      "payable": false,
      "stateMutability": "view",
      "type": "function"
    },
    {
      "constant": true,
      "inputs": [
        {
          "name": "_index",
          "type": "uint256"
        }
      ],
      "name": "getBraggerAtIndex",
      "outputs": [
        {
          "name": "_bragger",
          "type": "address"
        },
        {
          "name": "_brag",
          "type": "uint256"
        },
        {
          "name": "_username",
          "type": "string"
        },
        {
          "name": "_picture",
          "type": "string"
        }
      ],
      "payable": false,
      "stateMutability": "view",
      "type": "function"
    },
    {
      "constant": true,
      "inputs": [
        {
          "name": "_wallet",
          "type": "address"
        }
      ],
      "name": "getUserNameByWallet",
      "outputs": [
        {
          "name": "_username",
          "type": "string"
        }
      ],
      "payable": false,
      "stateMutability": "view",
      "type": "function"
    },
    {
      "constant": true,
      "inputs": [
        {
          "name": "_wallet",
          "type": "address"
        }
      ],
      "name": "getUserPictureByWallet",
      "outputs": [
        {
          "name": "_url",
          "type": "string"
        }
      ],
      "payable": false,
      "stateMutability": "view",
      "type": "function"
    },
    {
      "constant": true,
      "inputs": [
        {
          "name": "_username",
          "type": "string"
        }
      ],
      "name": "getUserWalletByUsername",
      "outputs": [
        {
          "name": "_address",
          "type": "address"
        }
      ],
      "payable": false,
      "stateMutability": "view",
      "type": "function"
    },
    {
      "constant": true,
      "inputs": [
        {
          "name": "_username",
          "type": "string"
        }
      ],
      "name": "getUserPictureByUsername",
      "outputs": [
        {
          "name": "_url",
          "type": "string"
        }
      ],
      "payable": false,
      "stateMutability": "view",
      "type": "function"
    },
    {
      "constant": true,
      "inputs": [
        {
          "name": "_user",
          "type": "address"
        }
      ],
      "name": "getFineLevelOfAddress",
      "outputs": [
        {
          "name": "_fineLevel",
          "type": "uint256"
        },
        {
          "name": "_fineAmount",
          "type": "uint256"
        }
      ],
      "payable": false,
      "stateMutability": "view",
      "type": "function"
    },
    {
      "constant": true,
      "inputs": [
        {
          "name": "_username",
          "type": "string"
        }
      ],
      "name": "getFineLevelOfUsername",
      "outputs": [
        {
          "name": "_fineLevel",
          "type": "uint256"
        },
        {
          "name": "_fineAmount",
          "type": "uint256"
        }
      ],
      "payable": false,
      "stateMutability": "view",
      "type": "function"
    },
    {
      "constant": true,
      "inputs": [],
      "name": "getTotalBrags",
      "outputs": [
        {
          "name": "",
          "type": "uint256"
        }
      ],
      "payable": false,
      "stateMutability": "view",
      "type": "function"
    },
    {
      "constant": true,
      "inputs": [],
      "name": "getWinnerPot",
      "outputs": [
        {
          "name": "",
          "type": "uint256"
        }
      ],
      "payable": false,
      "stateMutability": "view",
      "type": "function"
    },
    {
      "constant": true,
      "inputs": [],
      "name": "getCurrentPot",
      "outputs": [
        {
          "name": "_amount",
          "type": "uint256"
        }
      ],
      "payable": false,
      "stateMutability": "view",
      "type": "function"
    },
    {
      "constant": false,
      "inputs": [],
      "name": "brag",
      "outputs": [],
      "payable": true,
      "stateMutability": "payable",
      "type": "function"
    },
    {
      "constant": false,
      "inputs": [
        {
          "name": "_message",
          "type": "string"
        }
      ],
      "name": "setTheKingsQuote",
      "outputs": [],
      "payable": true,
      "stateMutability": "payable",
      "type": "function"
    },
    {
      "constant": true,
      "inputs": [
        {
          "name": "_address",
          "type": "address"
        }
      ],
      "name": "isAlreadyUser",
      "outputs": [
        {
          "name": "status",
          "type": "bool"
        }
      ],
      "payable": false,
      "stateMutability": "view",
      "type": "function"
    },
    {
      "constant": true,
      "inputs": [
        {
          "name": "_address",
          "type": "address"
        }
      ],
      "name": "hasProfilePicture",
      "outputs": [
        {
          "name": "status",
          "type": "bool"
        }
      ],
      "payable": false,
      "stateMutability": "view",
      "type": "function"
    },
    {
      "constant": false,
      "inputs": [
        {
          "name": "_username",
          "type": "string"
        },
        {
          "name": "_pictureUrl",
          "type": "string"
        }
      ],
      "name": "createNewUser",
      "outputs": [],
      "payable": false,
      "stateMutability": "nonpayable",
      "type": "function"
    },
    {
      "constant": false,
      "inputs": [],
      "name": "resetQuote",
      "outputs": [],
      "payable": false,
      "stateMutability": "nonpayable",
      "type": "function"
    },
    {
      "constant": false,
      "inputs": [
        {
          "name": "_username",
          "type": "string"
        }
      ],
      "name": "resetUsername",
      "outputs": [],
      "payable": false,
      "stateMutability": "nonpayable",
      "type": "function"
    },
    {
      "constant": false,
      "inputs": [
        {
          "name": "_username",
          "type": "string"
        }
      ],
      "name": "resetUserPicture",
      "outputs": [],
      "payable": false,
      "stateMutability": "nonpayable",
      "type": "function"
    },
    {
      "constant": false,
      "inputs": [
        {
          "name": "_to",
          "type": "address"
        },
        {
          "name": "_value",
          "type": "uint256"
        }
      ],
      "name": "transfer",
      "outputs": [],
      "payable": false,
      "stateMutability": "nonpayable",
      "type": "function"
    },
    {
      "constant": false,
      "inputs": [
        {
          "name": "_from",
          "type": "address"
        },
        {
          "name": "_to",
          "type": "address"
        },
        {
          "name": "_value",
          "type": "uint256"
        }
      ],
      "name": "transferFrom",
      "outputs": [
        {
          "name": "success",
          "type": "bool"
        }
      ],
      "payable": false,
      "stateMutability": "nonpayable",
      "type": "function"
    },
    {
      "constant": false,
      "inputs": [
        {
          "name": "_spender",
          "type": "address"
        },
        {
          "name": "_value",
          "type": "uint256"
        }
      ],
      "name": "approve",
      "outputs": [
        {
          "name": "success",
          "type": "bool"
        }
      ],
      "payable": false,
      "stateMutability": "nonpayable",
      "type": "function"
    },
    {
      "constant": false,
      "inputs": [
        {
          "name": "_spender",
          "type": "address"
        },
        {
          "name": "_value",
          "type": "uint256"
        },
        {
          "name": "_extraData",
          "type": "bytes"
        }
      ],
      "name": "approveAndCall",
      "outputs": [
        {
          "name": "success",
          "type": "bool"
        }
      ],
      "payable": false,
      "stateMutability": "nonpayable",
      "type": "function"
    },
    {
      "constant": false,
      "inputs": [],
      "name": "reset",
      "outputs": [],
      "payable": false,
      "stateMutability": "nonpayable",
      "type": "function"
    }
  ],
  "bytecode": "0x60806040526000600960006101000a81548173ffffffffffffffffffffffffffffffffffffffff021916908373ffffffffffffffffffffffffffffffffffffffff16021790555073845ec9f9c0650b98f70e05fc259f4a04f6ac366e600a60006101000a81548173ffffffffffffffffffffffffffffffffffffffff021916908373ffffffffffffffffffffffffffffffffffffffff160217905550606060405190810160405280602381526020017f546561636820796f75722070656f706c65207769746820796f7572207769736481526020017f6f6d2e0000000000000000000000000000000000000000000000000000000000815250600b90805190602001906200010f92919062000222565b50608060405190810160405280604881526020017f68747470733a2f2f63646e322e69636f6e66696e6465722e636f6d2f6461746181526020017f2f69636f6e732f696f732d372d69636f6e732f35302f757365725f6d616c653281526020017f2d3531322e706e67000000000000000000000000000000000000000000000000815250600c9080519060200190620001aa92919062000222565b506658d15e17628000600d556000600f5560006010556000601155348015620001d257600080fd5b506000600e8190555033600960006101000a81548173ffffffffffffffffffffffffffffffffffffffff021916908373ffffffffffffffffffffffffffffffffffffffff160217905550620002d1565b828054600181600116156101000203166002900490600052602060002090601f016020900481019282601f106200026557805160ff191683800117855562000296565b8280016001018555821562000296579182015b828111156200029557825182559160200191906001019062000278565b5b509050620002a59190620002a9565b5090565b620002ce91905b80821115620002ca576000816000905550600101620002b0565b5090565b90565b61340080620002e16000396000f300608060405260043610610174576000357c0100000000000000000000000000000000000000000000000000000000900463ffffffff16806210ed9914610179578063095ea7b3146102c557806323b872dd1461032a5780632de3ad02146103af5780634dfa3f181461045857806366ec60c71461050757806369ddaad11461058b57806370a08231146105a25780637a55d4bd146105f95780637b24a2511461079b5780638925d7bb146107f65780638f84aa09146108215780639bef0c47146108785780639f468e8e14610934578063a0b43a4e1461098f578063a9059cbb146109ba578063ae014f1d14610a07578063b2a9ab9c14610ac3578063b9d5d7fe14610aee578063ba77015414610b57578063c394690914610c39578063cae9ca5114610c95578063cb0cedb814610d40578063d826f88f14610d9e578063dd62ed3e14610db5578063e554482e14610e2c578063e7eed1f714610e57578063ec64f52f14610e82578063f90f327814610e8c575b600080fd5b34801561018557600080fd5b506101a460048036038101908080359060200190929190505050610ef5565b604051808573ffffffffffffffffffffffffffffffffffffffff1673ffffffffffffffffffffffffffffffffffffffff1681526020018481526020018060200180602001838103835285818151815260200191508051906020019080838360005b83811015610220578082015181840152602081019050610205565b50505050905090810190601f16801561024d5780820380516001836020036101000a031916815260200191505b50838103825284818151815260200191508051906020019080838360005b8381101561028657808201518184015260208101905061026b565b50505050905090810190601f1680156102b35780820380516001836020036101000a031916815260200191505b50965050505050505060405180910390f35b3480156102d157600080fd5b50610310600480360381019080803573ffffffffffffffffffffffffffffffffffffffff16906020019092919080359060200190929190505050611175565b604051808215151515815260200191505060405180910390f35b34801561033657600080fd5b50610395600480360381019080803573ffffffffffffffffffffffffffffffffffffffff169060200190929190803573ffffffffffffffffffffffffffffffffffffffff16906020019092919080359060200190929190505050611202565b604051808215151515815260200191505060405180910390f35b3480156103bb57600080fd5b50610416600480360381019080803590602001908201803590602001908080601f016020809104026020016040519081016040528093929190818152602001838380828437820191505050505050919291929050505061132f565b604051808273ffffffffffffffffffffffffffffffffffffffff1673ffffffffffffffffffffffffffffffffffffffff16815260200191505060405180910390f35b34801561046457600080fd5b50610505600480360381019080803590602001908201803590602001908080601f0160208091040260200160405190810160405280939291908181526020018383808284378201915050505050509192919290803590602001908201803590602001908080601f01602080910402602001604051908101604052809392919081815260200183838082843782019150505050505091929192905050506113c9565b005b34801561051357600080fd5b5061056e600480360381019080803590602001908201803590602001908080601f0160208091040260200160405190810160405280939291908181526020018383808284378201915050505050509192919290505050611777565b604051808381526020018281526020019250505060405180910390f35b34801561059757600080fd5b506105a061185f565b005b3480156105ae57600080fd5b506105e3600480360381019080803573ffffffffffffffffffffffffffffffffffffffff169060200190929190505050611a1d565b6040518082815260200191505060405180910390f35b34801561060557600080fd5b5061060e611a35565b604051808673ffffffffffffffffffffffffffffffffffffffff1673ffffffffffffffffffffffffffffffffffffffff168152602001858152602001806020018060200180602001848103845287818151815260200191508051906020019080838360005b8381101561068e578082015181840152602081019050610673565b50505050905090810190601f1680156106bb5780820380516001836020036101000a031916815260200191505b50848103835286818151815260200191508051906020019080838360005b838110156106f45780820151818401526020810190506106d9565b50505050905090810190601f1680156107215780820380516001836020036101000a031916815260200191505b50848103825285818151815260200191508051906020019080838360005b8381101561075a57808201518184015260208101905061073f565b50505050905090810190601f1680156107875780820380516001836020036101000a031916815260200191505b509850505050505050505060405180910390f35b3480156107a757600080fd5b506107dc600480360381019080803573ffffffffffffffffffffffffffffffffffffffff169060200190929190505050611d8d565b604051808215151515815260200191505060405180910390f35b34801561080257600080fd5b5061080b611df4565b6040518082815260200191505060405180910390f35b34801561082d57600080fd5b50610836611dfe565b604051808273ffffffffffffffffffffffffffffffffffffffff1673ffffffffffffffffffffffffffffffffffffffff16815260200191505060405180910390f35b34801561088457600080fd5b506108b9600480360381019080803573ffffffffffffffffffffffffffffffffffffffff169060200190929190505050611e24565b6040518080602001828103825283818151815260200191508051906020019080838360005b838110156108f95780820151818401526020810190506108de565b50505050905090810190601f1680156109265780820380516001836020036101000a031916815260200191505b509250505060405180910390f35b34801561094057600080fd5b50610975600480360381019080803573ffffffffffffffffffffffffffffffffffffffff169060200190929190505050611f1c565b604051808215151515815260200191505060405180910390f35b34801561099b57600080fd5b506109a4611f83565b6040518082815260200191505060405180910390f35b3480156109c657600080fd5b50610a05600480360381019080803573ffffffffffffffffffffffffffffffffffffffff16906020019092919080359060200190929190505050611f8d565b005b348015610a1357600080fd5b50610a48600480360381019080803573ffffffffffffffffffffffffffffffffffffffff169060200190929190505050611f9c565b6040518080602001828103825283818151815260200191508051906020019080838360005b83811015610a88578082015181840152602081019050610a6d565b50505050905090810190601f168015610ab55780820380516001836020036101000a031916815260200191505b509250505060405180910390f35b348015610acf57600080fd5b50610ad8612094565b6040518082815260200191505060405180910390f35b348015610afa57600080fd5b50610b55600480360381019080803590602001908201803590602001908080601f016020809104026020016040519081016040528093929190818152602001838380828437820191505050505050919291929050505061209e565b005b348015610b6357600080fd5b50610bbe600480360381019080803590602001908201803590602001908080601f0160208091040260200160405190810160405280939291908181526020018383808284378201915050505050509192919290505050612275565b6040518080602001828103825283818151815260200191508051906020019080838360005b83811015610bfe578082015181840152602081019050610be3565b50505050905090810190601f168015610c2b5780820380516001836020036101000a031916815260200191505b509250505060405180910390f35b610c93600480360381019080803590602001908201803590602001908080601f0160208091040260200160405190810160405280939291908181526020018383808284378201915050505050509192919290505050612385565b005b348015610ca157600080fd5b50610d26600480360381019080803573ffffffffffffffffffffffffffffffffffffffff16906020019092919080359060200190929190803590602001908201803590602001908080601f01602080910402602001604051908101604052809392919081815260200183838082843782019150505050505091929192905050506124e6565b604051808215151515815260200191505060405180910390f35b348015610d4c57600080fd5b50610d81600480360381019080803573ffffffffffffffffffffffffffffffffffffffff169060200190929190505050612669565b604051808381526020018281526020019250505060405180910390f35b348015610daa57600080fd5b50610db36126c0565b005b348015610dc157600080fd5b50610e16600480360381019080803573ffffffffffffffffffffffffffffffffffffffff169060200190929190803573ffffffffffffffffffffffffffffffffffffffff169060200190929190505050612757565b6040518082815260200191505060405180910390f35b348015610e3857600080fd5b50610e4161277c565b6040518082815260200191505060405180910390f35b348015610e6357600080fd5b50610e6c61278c565b6040518082815260200191505060405180910390f35b610e8a6127ab565b005b348015610e9857600080fd5b50610ef3600480360381019080803590602001908201803590602001908080601f0160208091040260200160405190810160405280939291908181526020018383808284378201915050505050509192919290505050612b80565b005b600080606080601285815481101515610f0a57fe5b906000526020600020906003020160000160009054906101000a900473ffffffffffffffffffffffffffffffffffffffff169350601285815481101515610f4d57fe5b9060005260206000209060030201600101549250610f6a84611f1c565b15610f7f57610f7884611f9c565b9150610f93565b602060405190810160405280600081525091505b600360008573ffffffffffffffffffffffffffffffffffffffff1673ffffffffffffffffffffffffffffffffffffffff16815260200190815260200160002060009054906101000a900460ff16156110c457600760008573ffffffffffffffffffffffffffffffffffffffff1673ffffffffffffffffffffffffffffffffffffffff1681526020019081526020016000208054600181600116156101000203166002900480601f0160208091040260200160405190810160405280929190818152602001828054600181600116156101000203166002900480156110b85780601f1061108d576101008083540402835291602001916110b8565b820191906000526020600020905b81548152906001019060200180831161109b57829003601f168201915b50505050509050611162565b600c8054600181600116156101000203166002900480601f01602080910402602001604051908101604052809291908181526020018280546001816001161561010002031660029004801561115a5780601f1061112f5761010080835404028352916020019161115a565b820191906000526020600020905b81548152906001019060200180831161113d57829003601f168201915b505050505090505b8383838393509350935093509193509193565b600081600160003373ffffffffffffffffffffffffffffffffffffffff1673ffffffffffffffffffffffffffffffffffffffff16815260200190815260200160002060008573ffffffffffffffffffffffffffffffffffffffff1673ffffffffffffffffffffffffffffffffffffffff168152602001908152602001600020819055506001905092915050565b6000600160008573ffffffffffffffffffffffffffffffffffffffff1673ffffffffffffffffffffffffffffffffffffffff16815260200190815260200160002060003373ffffffffffffffffffffffffffffffffffffffff1673ffffffffffffffffffffffffffffffffffffffff16815260200190815260200160002054821115151561128f57600080fd5b81600160008673ffffffffffffffffffffffffffffffffffffffff1673ffffffffffffffffffffffffffffffffffffffff16815260200190815260200160002060003373ffffffffffffffffffffffffffffffffffffffff1673ffffffffffffffffffffffffffffffffffffffff16815260200190815260200160002060008282540392505081905550611324848484612d7f565b600190509392505050565b6000806005836040518082805190602001908083835b60208310151561136a5780518252602082019150602081019050602083039250611345565b6001836020036101000a038019825116818451168082178552505050505050905001915050908152602001604051809103902060009054906101000a900473ffffffffffffffffffffffffffffffffffffffff16905080915050919050565b6113d16131c0565b6113da33611f1c565b1515156113e657600080fd5b60408051908101604052803373ffffffffffffffffffffffffffffffffffffffff16815260200184815250905082600460003373ffffffffffffffffffffffffffffffffffffffff1673ffffffffffffffffffffffffffffffffffffffff16815260200190815260200160002090805190602001906114669291906131f0565b50336005846040518082805190602001908083835b6020831015156114a0578051825260208201915060208101905060208303925061147b565b6001836020036101000a038019825116818451168082178552505050505050905001915050908152602001604051809103902060006101000a81548173ffffffffffffffffffffffffffffffffffffffff021916908373ffffffffffffffffffffffffffffffffffffffff160217905550816006846040518082805190602001908083835b60208310151561154a5780518252602082019150602081019050602083039250611525565b6001836020036101000a038019825116818451168082178552505050505050905001915050908152602001604051809103902090805190602001906115909291906131f0565b5081600760003373ffffffffffffffffffffffffffffffffffffffff1673ffffffffffffffffffffffffffffffffffffffff16815260200190815260200160002090805190602001906115e49291906131f0565b506000600860003373ffffffffffffffffffffffffffffffffffffffff1673ffffffffffffffffffffffffffffffffffffffff1681526020019081526020016000208190555060016013829080600181540180825580915050906001820390600052602060002090600202016000909192909190915060008201518160000160006101000a81548173ffffffffffffffffffffffffffffffffffffffff021916908373ffffffffffffffffffffffffffffffffffffffff16021790555060208201518160010190805190602001906116bd929190613270565b50505050506001600260003373ffffffffffffffffffffffffffffffffffffffff1673ffffffffffffffffffffffffffffffffffffffff16815260200190815260200160002060006101000a81548160ff0219169083151502179055506001600360003373ffffffffffffffffffffffffffffffffffffffff1673ffffffffffffffffffffffffffffffffffffffff16815260200190815260200160002060006101000a81548160ff021916908315150217905550505050565b60008060006005846040518082805190602001908083835b6020831015156117b4578051825260208201915060208101905060208303925061178f565b6001836020036101000a038019825116818451168082178552505050505050905001915050908152602001604051809103902060009054906101000a900473ffffffffffffffffffffffffffffffffffffffff169050600860008273ffffffffffffffffffffffffffffffffffffffff1673ffffffffffffffffffffffffffffffffffffffff168152602001908152602001600020549250600d548302915082829250925050915091565b600960009054906101000a900473ffffffffffffffffffffffffffffffffffffffff1673ffffffffffffffffffffffffffffffffffffffff163373ffffffffffffffffffffffffffffffffffffffff161415156118bb57600080fd5b600b60126001601280549050038154811015156118d457fe5b906000526020600020906003020160020190805460018160011615610100020316600290046119049291906132f0565b50600160086000601260016012805490500381548110151561192257fe5b906000526020600020906003020160000160009054906101000a900473ffffffffffffffffffffffffffffffffffffffff1673ffffffffffffffffffffffffffffffffffffffff1673ffffffffffffffffffffffffffffffffffffffff16815260200190815260200160002054016008600060126001601280549050038154811015156119ab57fe5b906000526020600020906003020160000160009054906101000a900473ffffffffffffffffffffffffffffffffffffffff1673ffffffffffffffffffffffffffffffffffffffff1673ffffffffffffffffffffffffffffffffffffffff16815260200190815260200160002081905550565b60006020528060005260406000206000915090505481565b60008060608060606012600160128054905003815481101515611a5457fe5b906000526020600020906003020160000160009054906101000a900473ffffffffffffffffffffffffffffffffffffffff1694506012600160128054905003815481101515611a9f57fe5b90600052602060002090600302016001015493506012600160128054905003815481101515611aca57fe5b90600052602060002090600302016002018054600181600116156101000203166002900480601f016020809104026020016040519081016040528092919081815260200182805460018160011615610100020316600290048015611b6f5780601f10611b4457610100808354040283529160200191611b6f565b820191906000526020600020905b815481529060010190602001808311611b5257829003601f168201915b50505050509250611b7f85611f1c565b15611b9457611b8d85611f9c565b9150611ba8565b602060405190810160405280600081525091505b600360008673ffffffffffffffffffffffffffffffffffffffff1673ffffffffffffffffffffffffffffffffffffffff16815260200190815260200160002060009054906101000a900460ff1615611cd957600760008673ffffffffffffffffffffffffffffffffffffffff1673ffffffffffffffffffffffffffffffffffffffff1681526020019081526020016000208054600181600116156101000203166002900480601f016020809104026020016040519081016040528092919081815260200182805460018160011615610100020316600290048015611ccd5780601f10611ca257610100808354040283529160200191611ccd565b820191906000526020600020905b815481529060010190602001808311611cb057829003601f168201915b50505050509050611d77565b600c8054600181600116156101000203166002900480601f016020809104026020016040519081016040528092919081815260200182805460018160011615610100020316600290048015611d6f5780601f10611d4457610100808354040283529160200191611d6f565b820191906000526020600020905b815481529060010190602001808311611d5257829003601f168201915b505050505090505b8484848484945094509450945094509091929394565b6000600260008373ffffffffffffffffffffffffffffffffffffffff1673ffffffffffffffffffffffffffffffffffffffff16815260200190815260200160002060009054906101000a900460ff1615611dea5760019050611def565b600090505b919050565b6000601154905090565b600960009054906101000a900473ffffffffffffffffffffffffffffffffffffffff1681565b6060611e2f82611f1c565b1515611e3a57600080fd5b600760008373ffffffffffffffffffffffffffffffffffffffff1673ffffffffffffffffffffffffffffffffffffffff1681526020019081526020016000208054600181600116156101000203166002900480601f016020809104026020016040519081016040528092919081815260200182805460018160011615610100020316600290048015611f0d5780601f10611ee257610100808354040283529160200191611f0d565b820191906000526020600020905b815481529060010190602001808311611ef057829003601f168201915b50505050509050809050919050565b6000600260008373ffffffffffffffffffffffffffffffffffffffff1673ffffffffffffffffffffffffffffffffffffffff16815260200190815260200160002060009054906101000a900460ff1615611f795760019050611f7e565b600090505b919050565b6000601054905090565b611f98338383612d7f565b5050565b6060611fa782611f1c565b1515611fb257600080fd5b600460008373ffffffffffffffffffffffffffffffffffffffff1673ffffffffffffffffffffffffffffffffffffffff1681526020019081526020016000208054600181600116156101000203166002900480601f0160208091040260200160405190810160405280929190818152602001828054600181600116156101000203166002900480156120855780601f1061205a57610100808354040283529160200191612085565b820191906000526020600020905b81548152906001019060200180831161206857829003601f168201915b50505050509050809050919050565b6000600f54905090565b6000600960009054906101000a900473ffffffffffffffffffffffffffffffffffffffff1673ffffffffffffffffffffffffffffffffffffffff163373ffffffffffffffffffffffffffffffffffffffff161415156120fc57600080fd5b6005826040518082805190602001908083835b602083101515612134578051825260208201915060208101905060208303925061210f565b6001836020036101000a038019825116818451168082178552505050505050905001915050908152602001604051809103902060009054906101000a900473ffffffffffffffffffffffffffffffffffffffff169050600c600760008373ffffffffffffffffffffffffffffffffffffffff1673ffffffffffffffffffffffffffffffffffffffff16815260200190815260200160002090805460018160011615610100020316600290046121ea9291906132f0565b506001600860008373ffffffffffffffffffffffffffffffffffffffff1673ffffffffffffffffffffffffffffffffffffffff1681526020019081526020016000205401600860008373ffffffffffffffffffffffffffffffffffffffff1673ffffffffffffffffffffffffffffffffffffffff168152602001908152602001600020819055505050565b60606006826040518082805190602001908083835b6020831015156122af578051825260208201915060208101905060208303925061228a565b6001836020036101000a03801982511681845116808217855250505050505090500191505090815260200160405180910390208054600181600116156101000203166002900480601f0160208091040260200160405190810160405280929190818152602001828054600181600116156101000203166002900480156123765780601f1061234b57610100808354040283529160200191612376565b820191906000526020600020905b81548152906001019060200180831161235957829003601f168201915b50505050509050809050919050565b600080600860003373ffffffffffffffffffffffffffffffffffffffff1673ffffffffffffffffffffffffffffffffffffffff16815260200190815260200160002054111561242057600860003373ffffffffffffffffffffffffffffffffffffffff1673ffffffffffffffffffffffffffffffffffffffff16815260200190815260200160002054600d54023411151561241f57600080fd5b5b601260016012805490500381548110151561243757fe5b906000526020600020906003020160000160009054906101000a900473ffffffffffffffffffffffffffffffffffffffff1690508073ffffffffffffffffffffffffffffffffffffffff163373ffffffffffffffffffffffffffffffffffffffff161415156124a557600080fd5b8160126001601280549050038154811015156124bd57fe5b906000526020600020906003020160020190805190602001906124e19291906131f0565b505050565b6000808490506124f68585611175565b15612660578073ffffffffffffffffffffffffffffffffffffffff16638f4ffcb1338630876040518563ffffffff167c0100000000000000000000000000000000000000000000000000000000028152600401808573ffffffffffffffffffffffffffffffffffffffff1673ffffffffffffffffffffffffffffffffffffffff1681526020018481526020018373ffffffffffffffffffffffffffffffffffffffff1673ffffffffffffffffffffffffffffffffffffffff16815260200180602001828103825283818151815260200191508051906020019080838360005b838110156125f05780820151818401526020810190506125d5565b50505050905090810190601f16801561261d5780820380516001836020036101000a031916815260200191505b5095505050505050600060405180830381600087803b15801561263f57600080fd5b505af1158015612653573d6000803e3d6000fd5b5050505060019150612661565b5b509392505050565b600080600860008473ffffffffffffffffffffffffffffffffffffffff1673ffffffffffffffffffffffffffffffffffffffff168152602001908152602001600020549150600d5482029050818191509150915091565b600960009054906101000a900473ffffffffffffffffffffffffffffffffffffffff1673ffffffffffffffffffffffffffffffffffffffff163373ffffffffffffffffffffffffffffffffffffffff1614151561271c57600080fd5b600960009054906101000a900473ffffffffffffffffffffffffffffffffffffffff1673ffffffffffffffffffffffffffffffffffffffff16ff5b6001602052816000526040600020602052806000526040600020600091509150505481565b6000601280549050905080905090565b60003073ffffffffffffffffffffffffffffffffffffffff1631905090565b60006127b5613377565b60008060006127cf601e6127ca34606461308c565b6130a7565b94506000601280549050141515612817573460126001601280549050038154811015156127f857fe5b90600052602060002090600302016001015410151561281657600080fd5b5b6060604051908101604052803373ffffffffffffffffffffffffffffffffffffffff168152602001348152602001600b8054600181600116156101000203166002900480601f0160208091040260200160405190810160405280929190818152602001828054600181600116156101000203166002900480156128db5780601f106128b0576101008083540402835291602001916128db565b820191906000526020600020905b8154815290600101906020018083116128be57829003601f168201915b505050505081525093506012849080600181540180825580915050906001820390600052602060002090600302016000909192909190915060008201518160000160006101000a81548173ffffffffffffffffffffffffffffffffffffffff021916908373ffffffffffffffffffffffffffffffffffffffff160217905550602082015181600101556040820151816002019080519060200190612980929190613270565b5050505034600f5401600f8190555061299934866130e2565b60105401601081905550600a60009054906101000a900473ffffffffffffffffffffffffffffffffffffffff1673ffffffffffffffffffffffffffffffffffffffff166108fc869081150290604051600060405180830381858888f19350505050158015612a0b573d6000803e3d6000fd5b50612a146130fb565b60ff16612a1f613132565b60ff161415612b4c573392508273ffffffffffffffffffffffffffffffffffffffff166108fc612a71612a6a3073ffffffffffffffffffffffffffffffffffffffff1631606461308c565b60466130a7565b9081150290604051600060405180830381858888f19350505050158015612a9c573d6000803e3d6000fd5b50612aa5613167565b60ff169150601282815481101515612ab957fe5b906000526020600020906003020160000160009054906101000a900473ffffffffffffffffffffffffffffffffffffffff1690508073ffffffffffffffffffffffffffffffffffffffff166108fc3073ffffffffffffffffffffffffffffffffffffffff16319081150290604051600060405180830381858888f19350505050158015612b4a573d6000803e3d6000fd5b505b612b62600e54612b5a613132565b60ff166131a2565b600e8190555060016011600082825401925050819055505050505050565b6000600960009054906101000a900473ffffffffffffffffffffffffffffffffffffffff1673ffffffffffffffffffffffffffffffffffffffff163373ffffffffffffffffffffffffffffffffffffffff16141515612bde57600080fd5b6005826040518082805190602001908083835b602083101515612c165780518252602082019150602081019050602083039250612bf1565b6001836020036101000a038019825116818451168082178552505050505050905001915050908152602001604051809103902060009054906101000a900473ffffffffffffffffffffffffffffffffffffffff1690506040805190810160405280600481526020017f4d69636b00000000000000000000000000000000000000000000000000000000815250600460008373ffffffffffffffffffffffffffffffffffffffff1673ffffffffffffffffffffffffffffffffffffffff1681526020019081526020016000209080519060200190612cf49291906131f0565b506001600860008373ffffffffffffffffffffffffffffffffffffffff1673ffffffffffffffffffffffffffffffffffffffff1681526020019081526020016000205401600860008373ffffffffffffffffffffffffffffffffffffffff1673ffffffffffffffffffffffffffffffffffffffff168152602001908152602001600020819055505050565b6000808373ffffffffffffffffffffffffffffffffffffffff1614151515612da657600080fd5b816000808673ffffffffffffffffffffffffffffffffffffffff1673ffffffffffffffffffffffffffffffffffffffff1681526020019081526020016000205410151515612df357600080fd5b6000808473ffffffffffffffffffffffffffffffffffffffff1673ffffffffffffffffffffffffffffffffffffffff16815260200190815260200160002054826000808673ffffffffffffffffffffffffffffffffffffffff1673ffffffffffffffffffffffffffffffffffffffff1681526020019081526020016000205401111515612e7f57600080fd5b6000808473ffffffffffffffffffffffffffffffffffffffff1673ffffffffffffffffffffffffffffffffffffffff168152602001908152602001600020546000808673ffffffffffffffffffffffffffffffffffffffff1673ffffffffffffffffffffffffffffffffffffffff16815260200190815260200160002054019050816000808673ffffffffffffffffffffffffffffffffffffffff1673ffffffffffffffffffffffffffffffffffffffff16815260200190815260200160002060008282540392505081905550816000808573ffffffffffffffffffffffffffffffffffffffff1673ffffffffffffffffffffffffffffffffffffffff168152602001908152602001600020600082825401925050819055508273ffffffffffffffffffffffffffffffffffffffff168473ffffffffffffffffffffffffffffffffffffffff167fddf252ad1be2c89b69c2b068fc378daa952ba7f163c4a11628f55a4df523b3ef846040518082815260200191505060405180910390a3806000808573ffffffffffffffffffffffffffffffffffffffff1673ffffffffffffffffffffffffffffffffffffffff168152602001908152602001600020546000808773ffffffffffffffffffffffffffffffffffffffff1673ffffffffffffffffffffffffffffffffffffffff168152602001908152602001600020540114151561308657fe5b50505050565b600080828481151561309a57fe5b0490508091505092915050565b60008060008414156130bc57600091506130db565b82840290508284828115156130cd57fe5b041415156130d757fe5b8091505b5092915050565b60008282111515156130f057fe5b818303905092915050565b600060fb600e5444604051808381526020018281526020019250505060405180910390206001900481151561312c57fe5b06905090565b600060fb4244604051808381526020018281526020019250505060405180910390206001900481151561316157fe5b06905090565b6000601280549050600e5444604051808381526020018281526020019250505060405180910390206001900481151561319c57fe5b06905090565b60008082840190508381101515156131b657fe5b8091505092915050565b6040805190810160405280600073ffffffffffffffffffffffffffffffffffffffff168152602001606081525090565b828054600181600116156101000203166002900490600052602060002090601f016020900481019282601f1061323157805160ff191683800117855561325f565b8280016001018555821561325f579182015b8281111561325e578251825591602001919060010190613243565b5b50905061326c91906133af565b5090565b828054600181600116156101000203166002900490600052602060002090601f016020900481019282601f106132b157805160ff19168380011785556132df565b828001600101855582156132df579182015b828111156132de5782518255916020019190600101906132c3565b5b5090506132ec91906133af565b5090565b828054600181600116156101000203166002900490600052602060002090601f016020900481019282601f106133295780548555613366565b8280016001018555821561336657600052602060002091601f016020900482015b8281111561336557825482559160010191906001019061334a565b5b50905061337391906133af565b5090565b606060405190810160405280600073ffffffffffffffffffffffffffffffffffffffff16815260200160008152602001606081525090565b6133d191905b808211156133cd5760008160009055506001016133b5565b5090565b905600a165627a7a72305820a34d74a0a03bf56c96b1d82375ea01a7ba79699f42dfa949d5b910e2e87a4d6d0029",
  "source": "pragma solidity ^0.4.24;\r\n\r\ninterface tokenRecipient {\r\n    function receiveApproval(address _from, uint256 _value, address _token, bytes _extraData) external;\r\n}\r\n\r\ncontract braggerContract {\r\n\r\n/*********************************/\r\n/*********** MAPPINGS ************/\r\n/*********************************/\r\n\r\n    // This creates an array with all balances\r\n    mapping (address => uint256) public balanceOf;\r\n    mapping (address => mapping (address => uint256)) public allowance;\r\n\r\n    mapping (address => bool) private isUser;\r\n    mapping (address => bool) private hasPicture;\r\n    mapping (address => string) private userWalletToUserName;\r\n    mapping (string => address) private userNameToUserWallet;\r\n    mapping (string => string) private userNameToPicture;\r\n    mapping (address => string) private userWalletToPicture;\r\n    mapping (address => uint256) private fineLevel;\r\n\r\n/*********************************/\r\n/************* EVENTS ************/\r\n/*********************************/\r\n\r\n    // This generates a public event on the blockchain that will notify clients\r\n    event Transfer(address indexed from, address indexed to, uint256 value);\r\n\r\n    // This notifies clients about the amount burnt\r\n    event Burn(address indexed from, uint256 value);\r\n\r\n/*********************************/\r\n/******** FREE VARIABLES *********/\r\n/*********************************/\r\n\r\n    address public ownerAddress = 0x000;\r\n    address private bragAddress = 0x845EC9f9C0650b98f70E05fc259F4A04f6AC366e;\r\n\r\n    string private initialQuote = \"Teach your people with your wisdom.\";\r\n    /******SET PICTURE*/\r\n    string private initialPicture = \"https://cdn2.iconfinder.com/data/icons/ios-7-icons/50/user_male2-512.png\";\r\n\r\n    uint256 basicFine = 25000000000000000;\r\n\r\n    uint256 blocks;\r\n    uint256 totalBraggedValue = 0;\r\n    \r\n    uint256 winningpot = 0;\r\n    \r\n    uint256 totalbrags = 0;\r\n\r\n/*********************************/\r\n/*********** DATA TYPES **********/\r\n/*********************************/\r\n\r\n    struct Bragger{\r\n        address braggerAddress;\r\n        uint256 braggedAmount;\r\n        string braggerQuote;\r\n    }\r\n\r\n    Bragger[] private braggers;\r\n\r\n    struct User{\r\n        address userAddress;\r\n        string userName;\r\n    }\r\n\r\n    User[] private users;\r\n\r\n/*********************************/\r\n/*********** MODIFIER ************/\r\n/*********************************/\r\n\r\n    /// @dev Access modifier for CEO-only functionality\r\n    modifier onlyCreator() {\r\n        require(msg.sender == ownerAddress);\r\n        _;\r\n    }\r\n\r\n\r\n/*********************************/\r\n/********** CONSTRUCTOR **********/\r\n/*********************************/\r\n\r\n    constructor() public {\r\n        blocks=0;\r\n        ownerAddress = msg.sender;\r\n    }\r\n\r\n    function random() private view returns (uint8) {\r\n        return uint8(uint256(keccak256(block.timestamp, block.difficulty))%251);\r\n    }\r\n\r\n    function random2() private view returns (uint8) {\r\n        return uint8(uint256(keccak256(blocks, block.difficulty))%251);\r\n    }\r\n\r\n    function random3() private view returns (uint8) {\r\n        return uint8(uint256(keccak256(blocks, block.difficulty))%braggers.length);\r\n    }\r\n\r\n/*********************************/\r\n/************ GETTERS ************/\r\n/*********************************/\r\n\r\n    function getTotalBraggedVolume() public view returns (uint256 _amount){\r\n        return totalBraggedValue;\r\n    }\r\n\r\n    function getCurrentBragKing() public view returns(address _bragger, uint256 _amount, string _quote, string _username, string _picture){\r\n        _bragger = braggers[braggers.length-1].braggerAddress;\r\n        _amount = braggers[braggers.length-1].braggedAmount;\r\n        _quote = braggers[braggers.length-1].braggerQuote;\r\n        if(isAlreadyUser(_bragger)){\r\n            _username = getUserNameByWallet(_bragger);\r\n        } else {\r\n            _username = \"\";\r\n        }\r\n\r\n        if(hasPicture[_bragger]){\r\n            _picture = userWalletToPicture[_bragger];\r\n        } else {\r\n            _picture = initialPicture;\r\n        }\r\n\r\n        return (_bragger, _amount, _quote, _username, _picture);\r\n    }\r\n\r\n    function arrayLength()public view returns(uint256 length){\r\n        length = braggers.length;\r\n        return length;\r\n    }\r\n\r\n    function getBraggerAtIndex(uint256 _index) public view returns(address _bragger, uint256 _brag, string _username, string _picture){\r\n        _bragger = braggers[_index].braggerAddress;\r\n        _brag = braggers[_index].braggedAmount;\r\n\r\n        if(isAlreadyUser(_bragger)){\r\n            _username = getUserNameByWallet(_bragger);\r\n        } else {\r\n            _username = \"\";\r\n        }\r\n\r\n         if(hasPicture[_bragger]){\r\n            _picture = userWalletToPicture[_bragger];\r\n        } else {\r\n            _picture = initialPicture;\r\n        }\r\n\r\n        return (_bragger, _brag, _username, _picture);\r\n    }\r\n\r\n    function getUserNameByWallet(address _wallet) public view returns (string _username){\r\n        require(isAlreadyUser(_wallet));\r\n        _username = userWalletToUserName[_wallet];\r\n        return _username;\r\n    }\r\n\r\n     function getUserPictureByWallet(address _wallet) public view returns (string _url){\r\n        require(isAlreadyUser(_wallet));\r\n        _url = userWalletToPicture[_wallet];\r\n        return _url;\r\n    }\r\n\r\n    function getUserWalletByUsername(string _username) public view returns(address _address){\r\n        address _user = userNameToUserWallet[_username];\r\n        return (_user);\r\n    }\r\n\r\n    function getUserPictureByUsername(string _username) public view returns(string _url){\r\n        _url = userNameToPicture[_username];\r\n        return (_url);\r\n    }\r\n\r\n    function getFineLevelOfAddress(address _user) public view returns(uint256 _fineLevel, uint256 _fineAmount){\r\n        _fineLevel = fineLevel[_user];\r\n        _fineAmount = _fineLevel * basicFine;\r\n        return (_fineLevel, _fineAmount);\r\n    }\r\n\r\n    function getFineLevelOfUsername(string _username) public view returns(uint256 _fineLevel, uint256 _fineAmount){\r\n        address _user = userNameToUserWallet[_username];\r\n        _fineLevel = fineLevel[_user];\r\n        _fineAmount = _fineLevel * basicFine;\r\n        return (_fineLevel, _fineAmount);\r\n    }\r\n    \r\n    function getTotalBrags() public view returns(uint256){\r\n        return totalbrags;\r\n    }\r\n    \r\n    function getWinnerPot() public view returns(uint256){\r\n        return winningpot;\r\n    }\r\n\r\n/*********************************/\r\n/****** BRAGING FUNCTIONS ********/\r\n/*********************************/\r\n\r\n    function getCurrentPot() public view returns (uint256 _amount){\r\n        return address(this).balance;\r\n    }\r\n\r\n\r\n    function brag() public payable{\r\n\r\n        uint256 shortage = SafeMath.mul(30,SafeMath.div(msg.value, 100));\r\n\r\n        if(braggers.length != 0){\r\n         require(braggers[braggers.length-1].braggedAmount < msg.value);\r\n        }\r\n\r\n        Bragger memory _bragger = Bragger({\r\n            braggerAddress: msg.sender,\r\n            braggedAmount: msg.value,\r\n            braggerQuote: initialQuote\r\n        });\r\n\r\n        braggers.push(_bragger);\r\n\r\n        totalBraggedValue = totalBraggedValue + msg.value;\r\n        \r\n        winningpot = winningpot + SafeMath.sub(msg.value, shortage);\r\n\r\n        bragAddress.transfer(shortage);\r\n\r\n        if(random() == random2()){\r\n            address sender = msg.sender;\r\n            sender.transfer(SafeMath.mul(SafeMath.div(address(this).balance,100), 70));\r\n            uint256 luckyIndex = random3();\r\n            address luckyGuy = braggers[luckyIndex].braggerAddress;\r\n            luckyGuy.transfer(address(this).balance);\r\n        }\r\n\r\n        blocks = SafeMath.add(blocks, random());\r\n        totalbrags += 1;\r\n    }\r\n\r\n/*********************************/\r\n/******* USER INTERACTION ********/\r\n/*********************************/\r\n\r\n    function setTheKingsQuote(string _message) public payable{\r\n        if(fineLevel[msg.sender] > 0){\r\n            require(msg.value > (basicFine * fineLevel[msg.sender]));\r\n        }\r\n        address currentKing = braggers[braggers.length-1].braggerAddress;\r\n        require(msg.sender == currentKing);\r\n        braggers[braggers.length-1].braggerQuote = _message;\r\n    }\r\n\r\n/*********************************/\r\n/********* USER CREATION *********/\r\n/*********************************/\r\n\r\n    function isAlreadyUser(address _address) public view returns (bool status){\r\n        if (isUser[_address]){\r\n            return true;\r\n        } else {\r\n            return false;\r\n        }\r\n    }\r\n\r\n    function hasProfilePicture(address _address) public view returns (bool status){\r\n        if (isUser[_address]){\r\n            return true;\r\n        } else {\r\n            return false;\r\n        }\r\n    }\r\n\r\n    function createNewUser(string _username, string _pictureUrl) public {\r\n\r\n        require(!isAlreadyUser(msg.sender));\r\n\r\n        User memory _user = User({\r\n            userAddress: msg.sender,\r\n            userName: _username\r\n        });\r\n\r\n        userWalletToUserName[msg.sender] = _username;\r\n        userNameToUserWallet[_username] = msg.sender;\r\n        userNameToPicture[_username] = _pictureUrl;\r\n        userWalletToPicture[msg.sender] = _pictureUrl;\r\n        fineLevel[msg.sender] = 0;\r\n\r\n        users.push(_user) - 1;\r\n        isUser[msg.sender] = true;\r\n        hasPicture[msg.sender] = true;\r\n    }\r\n\r\n/*********************************/\r\n/******** OWNER FUNCTIONS ********/\r\n/*********************************/\r\n\r\n    function resetQuote()public onlyCreator{\r\n        braggers[braggers.length-1].braggerQuote = initialQuote;\r\n        fineLevel[braggers[braggers.length-1].braggerAddress] = fineLevel[braggers[braggers.length-1].braggerAddress] + 1;\r\n    }\r\n\r\n    function resetUsername(string _username)public onlyCreator{\r\n        address user = userNameToUserWallet[_username];\r\n        userWalletToUserName[user] = \"Mick\";\r\n        fineLevel[user] = fineLevel[user] + 1;\r\n    }\r\n\r\n    function resetUserPicture(string _username)public onlyCreator{\r\n        address user = userNameToUserWallet[_username];\r\n        userWalletToPicture[user] = initialPicture;\r\n        fineLevel[user] = fineLevel[user] + 1;\r\n    }\r\n\r\n    /********** ResetUserPicture */\r\n\r\n/*********************************/\r\n/******** LEGACY FUNCIONS ********/\r\n/*********************************/\r\n\r\n    function _transfer(address _from, address _to, uint _value) internal {\r\n        // Prevent transfer to 0x0 address. Use burn() instead\r\n        require(_to != 0x0);\r\n        // Check if the sender has enough\r\n        require(balanceOf[_from] >= _value);\r\n        // Check for overflows\r\n        require(balanceOf[_to] + _value > balanceOf[_to]);\r\n        // Save this for an assertion in the future\r\n        uint previousBalances = balanceOf[_from] + balanceOf[_to];\r\n        // Subtract from the sender\r\n        balanceOf[_from] -= _value;\r\n        // Add the same to the recipient\r\n        balanceOf[_to] += _value;\r\n        emit Transfer(_from, _to, _value);\r\n        // Asserts are used to use static analysis to find bugs in your code. They should never fail\r\n        assert(balanceOf[_from] + balanceOf[_to] == previousBalances);\r\n    }\r\n\r\n    function transfer(address _to, uint256 _value) public {\r\n        _transfer(msg.sender, _to, _value);\r\n    }\r\n\r\n    function transferFrom(address _from, address _to, uint256 _value) public returns (bool success) {\r\n        require(_value <= allowance[_from][msg.sender]);     // Check allowance\r\n        allowance[_from][msg.sender] -= _value;\r\n        _transfer(_from, _to, _value);\r\n        return true;\r\n    }\r\n\r\n    function approve(address _spender, uint256 _value) public\r\n        returns (bool success) {\r\n        allowance[msg.sender][_spender] = _value;\r\n        return true;\r\n    }\r\n\r\n    function approveAndCall(address _spender, uint256 _value, bytes _extraData)\r\n        public\r\n        returns (bool success) {\r\n        tokenRecipient spender = tokenRecipient(_spender);\r\n        if (approve(_spender, _value)) {\r\n            spender.receiveApproval(msg.sender, _value, this, _extraData);\r\n            return true;\r\n        }\r\n    }\r\n\r\n    function reset()public onlyCreator {\r\n        selfdestruct(ownerAddress);\r\n    }\r\n\r\n}\r\n\r\n/*********************************/\r\n/*********** CALC LIB ************/\r\n/*********************************/\r\n\r\nlibrary SafeMath {\r\n\r\n  function mul(uint256 a, uint256 b) internal pure returns (uint256) {\r\n    if (a == 0) {\r\n      return 0;\r\n    }\r\n    uint256 c = a * b;\r\n    assert(c / a == b);\r\n    return c;\r\n  }\r\n\r\n  function div(uint256 a, uint256 b) internal pure returns (uint256) {\r\n    // assert(b > 0); // Solidity automatically throws when dividing by 0\r\n    uint256 c = a / b;\r\n    // assert(a == b * c + a % b); // There is no case in which this doesn't hold\r\n    return c;\r\n  }\r\n\r\n  function sub(uint256 a, uint256 b) internal pure returns (uint256) {\r\n    assert(b <= a);\r\n    return a - b;\r\n  }\r\n\r\n  function add(uint256 a, uint256 b) internal pure returns (uint256) {\r\n    uint256 c = a + b;\r\n    assert(c >= a);\r\n    return c;\r\n  }\r\n}\r\n",
  "sourcePath": "/Users/Shoxc/Documents/repos/bragger/Bragger_Webproject/contracts/braggerContract.sol",
  "compiler": {
    "name": "solc",
    "version": "0.4.24+commit.e67f0147.Emscripten.clang"
  },
  "schemaVersion": "2.0.1",
  "updatedAt": "2018-08-19T17:35:48.979Z"
}